{
  "_format": "hh-sol-artifact-1",
  "contractName": "Membership",
  "sourceName": "contracts/Membership.sol",
  "abi": [
    {
      "inputs": [
        {
          "internalType": "enum Types.Template",
          "name": "_template",
          "type": "uint8"
        },
        {
          "internalType": "uint8",
          "name": "positionalValue1",
          "type": "uint8"
        },
        {
          "internalType": "uint8",
          "name": "positionalValue2",
          "type": "uint8"
        },
        {
          "internalType": "uint8",
          "name": "positionalValue3",
          "type": "uint8"
        }
      ],
      "stateMutability": "nonpayable",
      "type": "constructor"
    },
    {
      "inputs": [],
      "name": "communityAddress",
      "outputs": [
        {
          "internalType": "address",
          "name": "",
          "type": "address"
        }
      ],
      "stateMutability": "view",
      "type": "function"
    },
    {
      "inputs": [
        {
          "internalType": "uint16",
          "name": "",
          "type": "uint16"
        }
      ],
      "name": "positionalValues",
      "outputs": [
        {
          "internalType": "uint16",
          "name": "",
          "type": "uint16"
        }
      ],
      "stateMutability": "view",
      "type": "function"
    },
    {
      "inputs": [],
      "name": "template",
      "outputs": [
        {
          "internalType": "enum Types.Template",
          "name": "",
          "type": "uint8"
        }
      ],
      "stateMutability": "view",
      "type": "function"
    }
  ],
  "bytecode": "0x608060405234801561001057600080fd5b506040516102603803806102608339818101604052608081101561003357600080fd5b5080516020820151604083015160609093015160008054336001600160a01b03199182168117909255600180549091169091178082559394929385919060ff60a01b1916600160a01b83600381111561008857fe5b021790555060026020527fe90b7bceb6e7df5418fb78d8ee546e97c83a08bbccc01a0644d599ccd2a7c2e0805461ffff1990811660ff958616179091557f679795a0195a1b76cdebb7c51d74e058aee92919b8c3389af86ef24535e8a28c805482169385169390931790925560036000527f88601476d11616a71c5be67555bd1dff4b1cbf21533d2669b768b61518cfe1c38054909216921691909117905550610129806101376000396000f3fe6080604052348015600f57600080fd5b5060043610603c5760003560e01c80636f2ddd9314604157806374b6240614606757806386e476dd14609c575b600080fd5b604760be565b60405180826003811115605657fe5b815260200191505060405180910390f35b608560048036036020811015607b57600080fd5b503561ffff1660ce565b6040805161ffff9092168252519081900360200190f35b60a260e4565b604080516001600160a01b039092168252519081900360200190f35b600154600160a01b900460ff1681565b60026020526000908152604090205461ffff1681565b6000546001600160a01b03168156fea2646970667358221220f510d9fda6093a0df8ef25c3c55682d2e278e639c87a5f689e702228b9218d8364736f6c63430007040033",
  "linkReferences": {},
  "deployedLinkReferences": {}
}