{
  "_format": "hh-sol-artifact-1",
  "contractName": "CommunitiesRegistry",
  "sourceName": "contracts/CommunitiesRegistry.sol",
  "abi": [
    {
      "inputs": [
        {
          "internalType": "address",
          "name": "_skillWalletAddress",
          "type": "address"
        }
      ],
      "stateMutability": "nonpayable",
      "type": "constructor"
    },
    {
      "anonymous": false,
      "inputs": [
        {
          "indexed": false,
          "internalType": "address",
          "name": "_newCommunityAddress",
          "type": "address"
        }
      ],
      "name": "CommunityCreated",
      "type": "event"
    },
    {
      "inputs": [
        {
          "internalType": "address",
          "name": "",
          "type": "address"
        }
      ],
      "name": "communities",
      "outputs": [
        {
          "internalType": "bool",
          "name": "",
          "type": "bool"
        }
      ],
      "stateMutability": "view",
      "type": "function"
    },
    {
      "inputs": [
        {
          "internalType": "string",
          "name": "_url",
          "type": "string"
        },
        {
          "internalType": "uint256",
          "name": "_ownerId",
          "type": "uint256"
        },
        {
          "internalType": "uint256",
          "name": "_ownerCredits",
          "type": "uint256"
        },
        {
          "internalType": "string",
          "name": "_name",
          "type": "string"
        },
        {
          "internalType": "enum Types.Template",
          "name": "_template",
          "type": "uint8"
        },
        {
          "internalType": "uint8",
          "name": "_positionalValue1",
          "type": "uint8"
        },
        {
          "internalType": "uint8",
          "name": "_positionalValue2",
          "type": "uint8"
        },
        {
          "internalType": "uint8",
          "name": "_positionalValue3",
          "type": "uint8"
        }
      ],
      "name": "createCommunity",
      "outputs": [
        {
          "internalType": "address",
          "name": "_communityAddress",
          "type": "address"
        }
      ],
      "stateMutability": "nonpayable",
      "type": "function"
    },
    {
      "inputs": [
        {
          "internalType": "address",
          "name": "community",
          "type": "address"
        },
        {
          "internalType": "uint256",
          "name": "skillWalletTokenId",
          "type": "uint256"
        },
        {
          "internalType": "uint256",
          "name": "credits",
          "type": "uint256"
        }
      ],
      "name": "joinExistingSW",
      "outputs": [],
      "stateMutability": "nonpayable",
      "type": "function"
    },
    {
      "inputs": [
        {
          "internalType": "address",
          "name": "community",
          "type": "address"
        },
        {
          "components": [
            {
              "components": [
                {
                  "internalType": "uint64",
                  "name": "displayStringId",
                  "type": "uint64"
                },
                {
                  "internalType": "uint8",
                  "name": "level",
                  "type": "uint8"
                }
              ],
              "internalType": "struct Types.Skill",
              "name": "skill1",
              "type": "tuple"
            },
            {
              "components": [
                {
                  "internalType": "uint64",
                  "name": "displayStringId",
                  "type": "uint64"
                },
                {
                  "internalType": "uint8",
                  "name": "level",
                  "type": "uint8"
                }
              ],
              "internalType": "struct Types.Skill",
              "name": "skill2",
              "type": "tuple"
            },
            {
              "components": [
                {
                  "internalType": "uint64",
                  "name": "displayStringId",
                  "type": "uint64"
                },
                {
                  "internalType": "uint8",
                  "name": "level",
                  "type": "uint8"
                }
              ],
              "internalType": "struct Types.Skill",
              "name": "skill3",
              "type": "tuple"
            }
          ],
          "internalType": "struct Types.SkillSet",
          "name": "skillSet",
          "type": "tuple"
        },
        {
          "internalType": "string",
          "name": "uri",
          "type": "string"
        },
        {
          "internalType": "uint256",
          "name": "credits",
          "type": "uint256"
        }
      ],
      "name": "joinNewMember",
      "outputs": [],
      "stateMutability": "nonpayable",
      "type": "function"
    },
    {
      "inputs": [],
      "name": "numOfCommunities",
      "outputs": [
        {
          "internalType": "uint256",
          "name": "",
          "type": "uint256"
        }
      ],
      "stateMutability": "view",
      "type": "function"
    },
    {
      "inputs": [],
      "name": "skillWalletAddress",
      "outputs": [
        {
          "internalType": "address",
          "name": "",
          "type": "address"
        }
      ],
      "stateMutability": "view",
      "type": "function"
    }
  ],
  "bytecode": "0x608060405234801561001057600080fd5b50604051613fe1380380613fe183398101604081905261002f91610054565b600280546001600160a01b0319166001600160a01b0392909216919091179055610082565b600060208284031215610065578081fd5b81516001600160a01b038116811461007b578182fd5b9392505050565b613f50806100916000396000f3fe60806040523480156200001157600080fd5b50600436106200006a5760003560e01c806348b2b321146200006f5780637712f55114620000885780637f2813d2146200009f578063a894d2aa14620000ce578063b8ca270814620000e7578063be8667691462000100575b600080fd5b620000866200008036600462000518565b62000117565b005b620000866200009936600462000472565b620001c7565b620000b6620000b03660046200044e565b62000276565b604051620000c5919062000743565b60405180910390f35b620000d86200028b565b604051620000c59190620006b0565b620000f16200029a565b604051620000c591906200083b565b620000d8620001113660046200054d565b620002a0565b6001600160a01b03831660009081526020819052604090205460ff166200015b5760405162461bcd60e51b8152600401620001529062000804565b60405180910390fd5b604051633cf335a360e11b815283906001600160a01b038216906379e66b46906200018d908690869060040162000844565b600060405180830381600087803b158015620001a857600080fd5b505af1158015620001bd573d6000803e3d6000fd5b5050505050505050565b6001600160a01b03851660009081526020819052604090205460ff16620002025760405162461bcd60e51b8152600401620001529062000804565b604051637712f55160e01b815285906001600160a01b03821690637712f551906200023a9033908990899089908990600401620006c4565b600060405180830381600087803b1580156200025557600080fd5b505af11580156200026a573d6000803e3d6000fd5b50505050505050505050565b60006020819052908152604090205460ff1681565b6002546001600160a01b031681565b60015481565b6000808989898989898989600260009054906101000a90046001600160a01b031630604051620002d09062000388565b620002e59a999897969594939291906200074e565b604051809103906000f08015801562000302573d6000803e3d6000fd5b50600180549192508291620003179162000852565b60019081556001600160a01b03821660009081526020819052604090819020805460ff1916909217909155517fb4108a188495a1a681cdc0750af164011025a1773b41e93ff3e628adc037dc299062000372908390620006b0565b60405180910390a19a9950505050505050505050565b61368d806200088e83390190565b80356001600160a01b0381168114620003ae57600080fd5b919050565b600082601f830112620003c4578081fd5b813567ffffffffffffffff80821115620003e257620003e262000877565b604051601f8301601f19168101602001828111828210171562000409576200040962000877565b60405282815284830160200186101562000421578384fd5b82602086016020830137918201602001929092529392505050565b803560ff81168114620003ae57600080fd5b60006020828403121562000460578081fd5b6200046b8262000396565b9392505050565b60008060008060008587036101208112156200048c578182fd5b620004978762000396565b955060c0601f1982011215620004ab578182fd5b5060208601935060e086013567ffffffffffffffff80821115620004cd578283fd5b818801915088601f830112620004e1578283fd5b813581811115620004f0578384fd5b89602082850101111562000502578384fd5b9699959850506020019561010001359392505050565b6000806000606084860312156200052d578283fd5b620005388462000396565b95602085013595506040909401359392505050565b600080600080600080600080610100898b0312156200056a578283fd5b883567ffffffffffffffff8082111562000582578485fd5b620005908c838d01620003b3565b995060208b0135985060408b0135975060608b0135915080821115620005b4578485fd5b50620005c38b828c01620003b3565b955050608089013560048110620005d8578384fd5b9350620005e860a08a016200043c565b9250620005f860c08a016200043c565b91506200060860e08a016200043c565b90509295985092959890939650565b6001600160a01b03169052565b60008151808452815b818110156200064b576020818501810151868301820152016200062d565b818111156200065d5782602083870101525b50601f01601f19169290920160200192915050565b803567ffffffffffffffff81168082146200068c57600080fd5b83525060ff6200069f602083016200043c565b1660208301525050565b60ff169052565b6001600160a01b0391909116815260200190565b6001600160a01b03861681526000610120620006e4602084018862000672565b620006f6606084016040890162000672565b6200070860a084016080890162000672565b8060e0840152848184015250610140848682850137828501810191909152610100820192909252601f909201601f1916909101019392505050565b901515815260200190565b6000610140808352620007648184018e62000624565b90508b60208401528a6040840152828103606084015262000786818b62000624565b91505060048810620007a857634e487b7160e01b600052602160045260246000fd5b87608083015260ff871660a0830152620007c660c0830187620006a9565b620007d560e0830186620006a9565b620007e561010083018562000617565b620007f561012083018462000617565b9b9a5050505050505050505050565b6020808252601a908201527f496e76616c696420636f6d6d756e697479206164647265737321000000000000604082015260600190565b90815260200190565b918252602082015260400190565b600082198211156200087257634e487b7160e01b81526011600452602481fd5b500190565b634e487b7160e01b600052604160045260246000fdfe6080604052600380546001600160a01b03199081169091556004805490911690553480156200002d57600080fd5b506040516200368d3803806200368d833981016040819052620000509162000a2a565b896200005c81620001d0565b50600680546001600160a01b038085166001600160a01b03199283161790925560078054928416929091169190911790556040518690869086908690620000a39062000865565b620000b2949392919062000bc5565b604051809103906000f080158015620000cf573d6000803e3d6000fd5b50600580546001600160a01b0319166001600160a01b03929092169190911790558651620001059060089060208a019062000873565b50600760009054906101000a90046001600160a01b03166001600160a01b031663b8ca27086040518163ffffffff1660e01b815260040160206040518083038186803b1580156200015557600080fd5b505afa1580156200016a573d6000803e3d6000fd5b505050506040513d601f19601f8201168201806040525081019062000190919062000b16565b620001a5576200019f620001e9565b620001c0565b620001af620001e9565b6009899055620001c0898962000232565b505050505050505050506200101a565b8051620001e590600290602084019062000873565b5050565b620002113060006040805160208101909152600081526914542ba12a337c00000090620003c2565b62000230306001604080516020810190915260008152600190620003c2565b565b600a54601861ffff9091161115620002675760405162461bcd60e51b81526004016200025e9062000d9b565b60405180910390fd5b6000828152600c602052604090205460ff1615620002995760405162461bcd60e51b81526004016200025e9062000ddf565b6006546040516331a9108f60e11b81526000916001600160a01b031690636352211e90620002cc90869060040162000e57565b60206040518083038186803b158015620002e557600080fd5b505afa158015620002fa573d6000803e3d6000fd5b505050506040513d601f19601f82011682018060405250810190620003209190620009dc565b6000848152600c60205260408120805460ff19166001179055600a805492935061ffff9092169190620003538362000f13565b91906101000a81548161ffff021916908361ffff16021790555050620003808183620004b860201b60201c565b7fe17e0e2cd88e2144dd54f3d823c30d4569092bcac1aabaec1129883e9cc12d2e818484604051620003b59392919062000ba4565b60405180910390a1505050565b6001600160a01b038416620003eb5760405162461bcd60e51b81526004016200025e9062000e16565b6000620003f7620004e2565b90506200041e816000876200040c88620004e7565b6200041788620004e7565b8762000543565b6000848152602081815260408083206001600160a01b0389168452909152812080548592906200045090849062000e6e565b92505081905550846001600160a01b031660006001600160a01b0316826001600160a01b03166000805160206200366d83398151915287876040516200049892919062000e60565b60405180910390a4620004b1816000878787876200054b565b5050505050565b620001e53083600084604051806020016040528060008152506200068260201b62000b381760201c565b335b90565b604080516001808252818301909252606091600091906020808301908036833701905050905082816000815181106200053057634e487b7160e01b600052603260045260246000fd5b602090810291909101015290505b919050565b505050505050565b6200056a846001600160a01b03166200081160201b62000cce1760201c565b15620005435760405163f23a6e6160e01b81526001600160a01b0385169063f23a6e6190620005a6908990899088908890889060040162000b5d565b602060405180830381600087803b158015620005c157600080fd5b505af1925050508015620005f4575060408051601f3d908101601f19168201909252620005f19181019062000a00565b60015b62000646576200060362000f6a565b806200061057506200062c565b8060405162461bcd60e51b81526004016200025e919062000c09565b60405162461bcd60e51b81526004016200025e9062000c1e565b6001600160e01b0319811663f23a6e6160e01b14620006795760405162461bcd60e51b81526004016200025e9062000c7b565b50505050505050565b6001600160a01b038416620006ab5760405162461bcd60e51b81526004016200025e9062000d0c565b620006b5620004e2565b6001600160a01b0316856001600160a01b03161480620006e55750620006e585620006df620004e2565b62000817565b620007045760405162461bcd60e51b81526004016200025e9062000cc3565b600062000710620004e2565b9050620007248187876200040c88620004e7565b6000848152602081815260408083206001600160a01b038a16845290915290205483811015620007685760405162461bcd60e51b81526004016200025e9062000d51565b62000774848262000e89565b6000868152602081815260408083206001600160a01b038c81168552925280832093909355881681529081208054869290620007b290849062000e6e565b92505081905550856001600160a01b0316876001600160a01b0316836001600160a01b03166000805160206200366d8339815191528888604051620007f992919062000e60565b60405180910390a4620006798288888888886200054b565b3b151590565b60006200083083836200083760201b62000cd41760201c565b5092915050565b6001600160a01b03918216600090815260016020908152604080832093909416825291909152205460ff1690565b61031a806200335383390190565b828054620008819062000ed6565b90600052602060002090601f016020900481019282620008a55760008555620008f0565b82601f10620008c057805160ff1916838001178555620008f0565b82800160010185558215620008f0579182015b82811115620008f0578251825591602001919060010190620008d3565b50620008fe92915062000902565b5090565b5b80821115620008fe576000815560010162000903565b80516001600160a01b03811681146200053e57600080fd5b8051600481106200053e57600080fd5b600082601f83011262000952578081fd5b81516001600160401b03808211156200096f576200096f62000f4e565b604051601f8301601f19168101602001828111828210171562000996576200099662000f4e565b604052828152848301602001861015620009ae578384fd5b620009c183602083016020880162000ea3565b95945050505050565b805160ff811681146200053e57600080fd5b600060208284031215620009ee578081fd5b620009f98262000919565b9392505050565b60006020828403121562000a12578081fd5b81516001600160e01b031981168114620009f9578182fd5b6000806000806000806000806000806101408b8d03121562000a4a578586fd5b8a516001600160401b038082111562000a61578788fd5b62000a6f8e838f0162000941565b9b5060208d01519a5060408d0151995060608d015191508082111562000a93578788fd5b5062000aa28d828e0162000941565b97505062000ab360808c0162000931565b955062000ac360a08c01620009ca565b945062000ad360c08c01620009ca565b935062000ae360e08c01620009ca565b925062000af46101008c0162000919565b915062000b056101208c0162000919565b90509295989b9194979a5092959850565b60006020828403121562000b28578081fd5b5051919050565b6000815180845262000b4981602086016020860162000ea3565b601f01601f19169290920160200192915050565b6001600160a01b03868116825285166020820152604081018490526060810183905260a06080820181905260009062000b999083018462000b2f565b979650505050505050565b6001600160a01b039390931683526020830191909152604082015260600190565b608081016004861062000be857634e487b7160e01b600052602160045260246000fd5b94815260ff9384166020820152918316604083015290911660609091015290565b600060208252620009f9602083018462000b2f565b60208082526034908201527f455243313135353a207472616e7366657220746f206e6f6e204552433131353560408201527f526563656976657220696d706c656d656e746572000000000000000000000000606082015260800190565b60208082526028908201527f455243313135353a204552433131353552656365697665722072656a656374656040820152676420746f6b656e7360c01b606082015260800190565b60208082526029908201527f455243313135353a2063616c6c6572206973206e6f74206f776e6572206e6f7260408201526808185c1c1c9bdd995960ba1b606082015260800190565b60208082526025908201527f455243313135353a207472616e7366657220746f20746865207a65726f206164604082015264647265737360d81b606082015260800190565b6020808252602a908201527f455243313135353a20696e73756666696369656e742062616c616e636520666f60408201526939103a3930b739b332b960b11b606082015260800190565b60208082526024908201527f54686572652061726520616c7265616479203234206d656d626572732c20736f6040820152637272792160e01b606082015260800190565b60208082526018908201527f596f75206861766520616c7265616479206a6f696e6564210000000000000000604082015260600190565b60208082526021908201527f455243313135353a206d696e7420746f20746865207a65726f206164647265736040820152607360f81b606082015260800190565b90815260200190565b918252602082015260400190565b6000821982111562000e845762000e8462000f38565b500190565b60008282101562000e9e5762000e9e62000f38565b500390565b60005b8381101562000ec057818101518382015260200162000ea6565b8381111562000ed0576000848401525b50505050565b60028104600182168062000eeb57607f821691505b6020821081141562000f0d57634e487b7160e01b600052602260045260246000fd5b50919050565b600061ffff8083168181141562000f2e5762000f2e62000f38565b6001019392505050565b634e487b7160e01b600052601160045260246000fd5b634e487b7160e01b600052604160045260246000fd5b60e01c90565b600060443d101562000f7c57620004e4565b600481823e6308c379a062000f92825162000f64565b1462000f9e57620004e4565b6040513d600319016004823e80513d6001600160401b03808311602484018310171562000fcf5750505050620004e4565b8284019250825191508082111562000feb5750505050620004e4565b503d830160208284010111156200100557505050620004e4565b601f01601f1916810160200160405291505090565b612329806200102a6000396000f3fe608060405234801561001057600080fd5b50600436106101415760003560e01c806379e66b46116100b8578063bc197c811161007c578063bc197c8114610298578063bedf77a6146102b8578063cfeaeb8b146102cb578063e985e9c5146102de578063f23a6e61146102f1578063f242432a1461030457610141565b806379e66b46146102355780637c8da89d14610248578063a22cb4651461025d578063abb88bcc14610270578063b887b0871461028557610141565b80630fa243a51161010a5780630fa243a5146101bf578063135b4165146101d25780631a98ce75146101da5780632eb2c2d6146101ed5780634e1273f4146102025780637712f5511461022257610141565b8062fdd58e14610146578063019c08f51461016f57806301ffc9a71461017757806306fdde03146101975780630e89341c146101ac575b600080fd5b610159610154366004611988565b610317565b604051610166919061210e565b60405180910390f35b610159610351565b61018a610185366004611a1b565b610357565b6040516101669190611cec565b61019f6103b8565b6040516101669190611d0c565b61019f6101ba366004611a53565b610446565b61018a6101cd366004611a53565b6104da565b6101596104ef565b6101596101e8366004611629565b6104f5565b6102006101fb3660046116a0565b610507565b005b6102156102103660046119b3565b610615565b6040516101669190611cab565b610200610230366004611913565b6106e9565b610200610243366004611a83565b610896565b610250610a05565b60405161016691906120ff565b61020061026b3660046118e2565b610a0f565b610278610a1d565b6040516101669190611b65565b610200610293366004611988565b610a2d565b6102ab6102a636600461175a565b610a4a565b6040516101669190611cf7565b6102006102c6366004611629565b610a5b565b6102006102d9366004611988565b610a95565b61018a6102ec366004611668565b610ab2565b6102ab6102ff36600461187c565b610abe565b610200610312366004611803565b610acf565b600081156103405760405162461bcd60e51b815260040161033790611e84565b60405180910390fd5b61034a8383610d02565b5092915050565b60095481565b60006001600160e01b03198216636cdb3d1360e11b148061038857506001600160e01b031982166303a24d0760e21b145b806103a357506001600160e01b03198216630271189760e51b145b806103b257506103b282610d50565b92915050565b600880546103c59061217d565b80601f01602080910402602001604051908101604052809291908181526020018280546103f19061217d565b801561043e5780601f106104135761010080835404028352916020019161043e565b820191906000526020600020905b81548152906001019060200180831161042157829003601f168201915b505050505081565b6060600280546104559061217d565b80601f01602080910402602001604051908101604052809291908181526020018280546104819061217d565b80156104ce5780601f106104a3576101008083540402835291602001916104ce565b820191906000526020600020905b8154815290600101906020018083116104b157829003601f168201915b50505050509050919050565b600c6020526000908152604090205460ff1681565b600b5481565b60006105018282610d02565b50919050565b61054b86868080602002602001604051908101604052809392919081815260200183836020028082843760009201919091525060019250610546915050565b610d75565b156105685760405162461bcd60e51b815260040161033790611e06565b61060b888888888080602002602001604051908101604052809392919081815260200183836020028082843760009201919091525050604080516020808c0282810182019093528b82529093508b92508a91829185019084908082843760009201919091525050604080516020601f8b018190048102820181019092528981529250899150889081908401838280828437600092019190915250610dd792505050565b5050505050505050565b606061065683838080602002602001604051908101604052809392919081815260200183836020028082843760009201919091525060019250610546915050565b156106735760405162461bcd60e51b815260040161033790611e06565b6106e08585808060200260200160405190810160405280939291908181526020018383602002808284376000920191909152505060408051602080890282810182019093528882529093508892508791829185019084908082843760009201919091525061103592505050565b50949350505050565b600a54601861ffff90911611156107125760405162461bcd60e51b815260040161033790611faa565b600654604051630a73b69d60e01b81526001600160a01b0390911690630a73b69d90610748908890889088908890600401611c1c565b600060405180830381600087803b15801561076257600080fd5b505af1158015610776573d6000803e3d6000fd5b50506006546040516342ca962960e01b8152600093506001600160a01b0390911691506342ca9629906107ad908990600401611b65565b60206040518083038186803b1580156107c557600080fd5b505afa1580156107d9573d6000803e3d6000fd5b505050506040513d601f19601f820116820180604052508101906107fd9190611a6b565b6000818152600c60205260408120805460ff19166001179055600a805492935061ffff909216919061082e836121b2565b91906101000a81548161ffff021916908361ffff160217905550506108538683610a2d565b7fe17e0e2cd88e2144dd54f3d823c30d4569092bcac1aabaec1129883e9cc12d2e86828460405161088693929190611c8a565b60405180910390a1505050505050565b600a54601861ffff90911611156108bf5760405162461bcd60e51b815260040161033790611faa565b6000828152600c602052604090205460ff16156108ee5760405162461bcd60e51b815260040161033790611fee565b6006546040516331a9108f60e11b81526000916001600160a01b031690636352211e9061091f90869060040161210e565b60206040518083038186803b15801561093757600080fd5b505afa15801561094b573d6000803e3d6000fd5b505050506040513d601f19601f8201168201806040525081019061096f919061164c565b6000848152600c60205260408120805460ff19166001179055600a805492935061ffff90921691906109a0836121b2565b91906101000a81548161ffff021916908361ffff160217905550506109c58183610a2d565b7fe17e0e2cd88e2144dd54f3d823c30d4569092bcac1aabaec1129883e9cc12d2e8184846040516109f893929190611c8a565b60405180910390a1505050565b600a5461ffff1681565b610a198282611154565b5050565b6005546001600160a01b03165b90565b610a19308360008460405180602001604052806000815250610b38565b63bc197c8160e01b95945050505050565b7fbea911b50ccdd2233b28faa49766c3cbd0631608f32e5a724d7b83b32b681ad081604051610a8a9190611b65565b60405180910390a150565b610a19823060008460405180602001604052806000815250610b38565b600061034a8383610cd4565b63f23a6e6160e01b95945050505050565b8315610aed5760405162461bcd60e51b815260040161033790611e06565b610b308686868686868080601f016020809104026020016040519081016040528093929190818152602001838380828437600092019190915250610b3892505050565b505050505050565b6001600160a01b038416610b5e5760405162461bcd60e51b815260040161033790611ec9565b610b66611222565b6001600160a01b0316856001600160a01b03161480610b8c5750610b8c856102ec611222565b610ba85760405162461bcd60e51b815260040161033790611e3b565b6000610bb2611222565b9050610bd2818787610bc388611226565b610bcc88611226565b87610b30565b6000848152602081815260408083206001600160a01b038a16845290915290205483811015610c135760405162461bcd60e51b815260040161033790611f60565b610c1d8482612166565b6000868152602081815260408083206001600160a01b038c81168552925280832093909355881681529081208054869290610c5990849061214e565b92505081905550856001600160a01b0316876001600160a01b0316836001600160a01b03167fc3d58168c5ae7397731d063d5bbf3d657854427343f4c083240f7aacaa2d0f628888604051610caf929190612117565b60405180910390a4610cc582888888888861127f565b50505050505050565b3b151590565b6001600160a01b03918216600090815260016020908152604080832093909416825291909152205460ff1690565b60006001600160a01b038316610d2a5760405162461bcd60e51b815260040161033790611dbb565b506000908152602081815260408083206001600160a01b03949094168352929052205490565b60006001600160e01b03198216630271189760e51b14806103b257506103b28261138d565b6000805b8351811015610dcd5782848281518110610da357634e487b7160e01b600052603260045260246000fd5b60200260200101511415610dbb5760019150506103b2565b80610dc5816121d4565b915050610d79565b5060009392505050565b8151835114610df85760405162461bcd60e51b8152600401610337906120b7565b6001600160a01b038416610e1e5760405162461bcd60e51b815260040161033790611ec9565b610e26611222565b6001600160a01b0316856001600160a01b03161480610e4c5750610e4c856102ec611222565b610e685760405162461bcd60e51b815260040161033790611f0e565b6000610e72611222565b9050610e82818787878787610b30565b60005b8451811015610fcf576000858281518110610eb057634e487b7160e01b600052603260045260246000fd5b602002602001015190506000858381518110610edc57634e487b7160e01b600052603260045260246000fd5b602090810291909101810151600084815280835260408082206001600160a01b038e168352909352919091205490915081811015610f2c5760405162461bcd60e51b815260040161033790611f60565b610f368282612166565b60008085815260200190815260200160002060008c6001600160a01b03166001600160a01b03168152602001908152602001600020819055508160008085815260200190815260200160002060008b6001600160a01b03166001600160a01b031681526020019081526020016000206000828254610fb4919061214e565b9250508190555050505080610fc8906121d4565b9050610e85565b50846001600160a01b0316866001600160a01b0316826001600160a01b03167f4a39dc06d4c0dbc64b70af90fd698a233a518aa5d07e595d983b8c0526c8f7fb878760405161101f929190611cbe565b60405180910390a4610b308187878787876113cd565b606081518351146110585760405162461bcd60e51b81526004016103379061206e565b600083516001600160401b0381111561108157634e487b7160e01b600052604160045260246000fd5b6040519080825280602002602001820160405280156110aa578160200160208202803683370190505b50905060005b845181101561114c576111118582815181106110dc57634e487b7160e01b600052603260045260246000fd5b602002602001015185838151811061110457634e487b7160e01b600052603260045260246000fd5b6020026020010151610317565b82828151811061113157634e487b7160e01b600052603260045260246000fd5b6020908102919091010152611145816121d4565b90506110b0565b509392505050565b816001600160a01b0316611166611222565b6001600160a01b0316141561118d5760405162461bcd60e51b815260040161033790612025565b806001600061119a611222565b6001600160a01b03908116825260208083019390935260409182016000908120918716808252919093529120805460ff1916921515929092179091556111de611222565b6001600160a01b03167f17307eab39ab6107e8899845ad3d59bd9653f200f220920489ca2b5937696c31836040516112169190611cec565b60405180910390a35050565b3390565b6040805160018082528183019092526060916000919060208083019080368337019050509050828160008151811061126e57634e487b7160e01b600052603260045260246000fd5b602090810291909101015292915050565b611291846001600160a01b0316610cce565b15610b305760405163f23a6e6160e01b81526001600160a01b0385169063f23a6e61906112ca9089908990889088908890600401611bd7565b602060405180830381600087803b1580156112e457600080fd5b505af1925050508015611314575060408051601f3d908101601f1916820190925261131191810190611a37565b60015b61135d57611320612221565b8061132b5750611345565b8060405162461bcd60e51b81526004016103379190611d0c565b60405162461bcd60e51b815260040161033790611d1f565b6001600160e01b0319811663f23a6e6160e01b14610cc55760405162461bcd60e51b815260040161033790611d73565b60006001600160e01b03198216636cdb3d1360e11b14806113be57506001600160e01b031982166303a24d0760e21b145b806103b257506103b28261149e565b6113df846001600160a01b0316610cce565b15610b305760405163bc197c8160e01b81526001600160a01b0385169063bc197c81906114189089908990889088908890600401611b79565b602060405180830381600087803b15801561143257600080fd5b505af1925050508015611462575060408051601f3d908101601f1916820190925261145f91810190611a37565b60015b61146e57611320612221565b6001600160e01b0319811663bc197c8160e01b14610cc55760405162461bcd60e51b815260040161033790611d73565b6001600160e01b031981166301ffc9a760e01b14919050565b60008083601f8401126114c8578182fd5b5081356001600160401b038111156114de578182fd5b60208301915083602080830285010111156114f857600080fd5b9250929050565b600082601f83011261150f578081fd5b813560206001600160401b0382111561152a5761152a612205565b808202611538828201612125565b838152828101908684018388018501891015611552578687fd5b8693505b85841015611574578035835260019390930192918401918401611556565b50979650505050505050565b60008083601f840112611591578182fd5b5081356001600160401b038111156115a7578182fd5b6020830191508360208285010111156114f857600080fd5b600082601f8301126115cf578081fd5b81356001600160401b038111156115e8576115e8612205565b6115fb601f8201601f1916602001612125565b81815284602083860101111561160f578283fd5b816020850160208301379081016020019190915292915050565b60006020828403121561163a578081fd5b8135611645816122c5565b9392505050565b60006020828403121561165d578081fd5b8151611645816122c5565b6000806040838503121561167a578081fd5b8235611685816122c5565b91506020830135611695816122c5565b809150509250929050565b60008060008060008060008060a0898b0312156116bb578384fd5b88356116c6816122c5565b975060208901356116d6816122c5565b965060408901356001600160401b03808211156116f1578586fd5b6116fd8c838d016114b7565b909850965060608b0135915080821115611715578586fd5b6117218c838d016114b7565b909650945060808b0135915080821115611739578384fd5b506117468b828c01611580565b999c989b5096995094979396929594505050565b600080600080600060a08688031215611771578081fd5b853561177c816122c5565b9450602086013561178c816122c5565b935060408601356001600160401b03808211156117a7578283fd5b6117b389838a016114ff565b945060608801359150808211156117c8578283fd5b6117d489838a016114ff565b935060808801359150808211156117e9578283fd5b506117f6888289016115bf565b9150509295509295909350565b60008060008060008060a0878903121561181b578182fd5b8635611826816122c5565b95506020870135611836816122c5565b9450604087013593506060870135925060808701356001600160401b0381111561185e578283fd5b61186a89828a01611580565b979a9699509497509295939492505050565b600080600080600060a08688031215611893578283fd5b853561189e816122c5565b945060208601356118ae816122c5565b9350604086013592506060860135915060808601356001600160401b038111156118d6578182fd5b6117f6888289016115bf565b600080604083850312156118f4578182fd5b82356118ff816122c5565b915060208301358015158114611695578182fd5b600080600080600085870361012081121561192c578384fd5b8635611937816122c5565b955060c0601f198201121561194a578384fd5b5060208601935060e08601356001600160401b03811115611969578384fd5b61197588828901611580565b9699959850966101000135949350505050565b6000806040838503121561199a578182fd5b82356119a5816122c5565b946020939093013593505050565b600080600080604085870312156119c8578182fd5b84356001600160401b03808211156119de578384fd5b6119ea888389016114b7565b90965094506020870135915080821115611a02578384fd5b50611a0f878288016114b7565b95989497509550505050565b600060208284031215611a2c578081fd5b8135611645816122dd565b600060208284031215611a48578081fd5b8151611645816122dd565b600060208284031215611a64578081fd5b5035919050565b600060208284031215611a7c578081fd5b5051919050565b60008060408385031215611a95578182fd5b50508035926020909101359150565b6000815180845260208085019450808401835b83811015611ad357815187529582019590820190600101611ab7565b509495945050505050565b60008151808452815b81811015611b0357602081850181015186830182015201611ae7565b81811115611b145782602083870101525b50601f01601f19169290920160200192915050565b80356001600160401b038116808214611b4157600080fd5b835250602081013560ff8116808214611b5957600080fd5b80602085015250505050565b6001600160a01b0391909116815260200190565b6001600160a01b0386811682528516602082015260a060408201819052600090611ba590830186611aa4565b8281036060840152611bb78186611aa4565b90508281036080840152611bcb8185611ade565b98975050505050505050565b6001600160a01b03868116825285166020820152604081018490526060810183905260a060808201819052600090611c1190830184611ade565b979650505050505050565b6001600160a01b03851681526000610100611c3a6020840187611b29565b611c4a6060840160408801611b29565b611c5a60a0840160808801611b29565b8060e0840152838184015250610120838582850137828401810191909152601f909201601f191601019392505050565b6001600160a01b039390931683526020830191909152604082015260600190565b6000602082526116456020830184611aa4565b600060408252611cd16040830185611aa4565b8281036020840152611ce38185611aa4565b95945050505050565b901515815260200190565b6001600160e01b031991909116815260200190565b6000602082526116456020830184611ade565b60208082526034908201527f455243313135353a207472616e7366657220746f206e6f6e20455243313135356040820152732932b1b2b4bb32b91034b6b83632b6b2b73a32b960611b606082015260800190565b60208082526028908201527f455243313135353a204552433131353552656365697665722072656a656374656040820152676420746f6b656e7360c01b606082015260800190565b6020808252602b908201527f455243313135353a2062616c616e636520717565727920666f7220746865207a60408201526a65726f206164647265737360a81b606082015260800190565b6020808252818101527f436f6d6d756e697479204e46542063616e277420626520747261736665726564604082015260600190565b60208082526029908201527f455243313135353a2063616c6c6572206973206e6f74206f776e6572206e6f7260408201526808185c1c1c9bdd995960ba1b606082015260800190565b60208082526025908201527f436f6d6d756e697479204e465420646f65736e2774206861766520612062616c60408201526430b731b29760d91b606082015260800190565b60208082526025908201527f455243313135353a207472616e7366657220746f20746865207a65726f206164604082015264647265737360d81b606082015260800190565b60208082526032908201527f455243313135353a207472616e736665722063616c6c6572206973206e6f74206040820152711bdddb995c881b9bdc88185c1c1c9bdd995960721b606082015260800190565b6020808252602a908201527f455243313135353a20696e73756666696369656e742062616c616e636520666f60408201526939103a3930b739b332b960b11b606082015260800190565b60208082526024908201527f54686572652061726520616c7265616479203234206d656d626572732c20736f6040820152637272792160e01b606082015260800190565b60208082526018908201527f596f75206861766520616c7265616479206a6f696e6564210000000000000000604082015260600190565b60208082526029908201527f455243313135353a2073657474696e6720617070726f76616c20737461747573604082015268103337b91039b2b63360b91b606082015260800190565b60208082526029908201527f455243313135353a206163636f756e747320616e6420696473206c656e677468604082015268040dad2e6dac2e8c6d60bb1b606082015260800190565b60208082526028908201527f455243313135353a2069647320616e6420616d6f756e7473206c656e677468206040820152670dad2e6dac2e8c6d60c31b606082015260800190565b61ffff91909116815260200190565b90815260200190565b918252602082015260400190565b6040518181016001600160401b038111828210171561214657612146612205565b604052919050565b60008219821115612161576121616121ef565b500190565b600082821015612178576121786121ef565b500390565b60028104600182168061219157607f821691505b6020821081141561050157634e487b7160e01b600052602260045260246000fd5b600061ffff808316818114156121ca576121ca6121ef565b6001019392505050565b60006000198214156121e8576121e86121ef565b5060010190565b634e487b7160e01b600052601160045260246000fd5b634e487b7160e01b600052604160045260246000fd5b60e01c90565b600060443d101561223157610a2a565b600481823e6308c379a0612245825161221b565b1461224f57610a2a565b6040513d600319016004823e80513d6001600160401b03816024840111818411171561227e5750505050610a2a565b828401925082519150808211156122985750505050610a2a565b503d830160208284010111156122b057505050610a2a565b601f01601f1916810160200160405291505090565b6001600160a01b03811681146122da57600080fd5b50565b6001600160e01b0319811681146122da57600080fdfea2646970667358221220db0f428daaeee78fdcc26aecf72381f1ee6795973dcdd1fbe891a845111e9cc464736f6c63430008000033608060405234801561001057600080fd5b5060405161031a38038061031a83398101604081905261002f9161013b565b60008054336001600160a01b031991821681179092556001805490911690911780825585919060ff60a01b1916600160a01b83600381111561008157634e487b7160e01b600052602160045260246000fd5b021790555060026020527fe90b7bceb6e7df5418fb78d8ee546e97c83a08bbccc01a0644d599ccd2a7c2e0805460ff94851661ffff19918216179091557f679795a0195a1b76cdebb7c51d74e058aee92919b8c3389af86ef24535e8a28c80549385169382169390931790925560036000527f88601476d11616a71c5be67555bd1dff4b1cbf21533d2669b768b61518cfe1c3805491909316911617905550610193565b805160ff8116811461013657600080fd5b919050565b60008060008060808587031215610150578384fd5b84516004811061015e578485fd5b935061016c60208601610125565b925061017a60408601610125565b915061018860608601610125565b905092959194509250565b610178806101a26000396000f3fe608060405234801561001057600080fd5b50600436106100415760003560e01c80636f2ddd931461004657806374b624061461006457806386e476dd14610084575b600080fd5b61004e610099565b60405161005b919061010b565b60405180910390f35b6100776100723660046100ce565b6100a9565b60405161005b9190610133565b61008c6100bf565b60405161005b91906100f7565b600154600160a01b900460ff1681565b60026020526000908152604090205461ffff1681565b6000546001600160a01b031681565b6000602082840312156100df578081fd5b813561ffff811681146100f0578182fd5b9392505050565b6001600160a01b0391909116815260200190565b602081016004831061012d57634e487b7160e01b600052602160045260246000fd5b91905290565b61ffff9190911681526020019056fea26469706673582212200e7a3f260631036778836e346a682ee4dfa50509428092ef815d1d001952a2e464736f6c63430008000033c3d58168c5ae7397731d063d5bbf3d657854427343f4c083240f7aacaa2d0f62a2646970667358221220786eaff3f377d7d5da2e12a1c63a6480464182498256a453e16e83f57992b06664736f6c63430008000033",
  "linkReferences": {},
  "deployedLinkReferences": {}
}