{
  "_format": "hh-sol-artifact-1",
  "contractName": "Gigs",
  "sourceName": "contracts/Gigs.sol",
  "abi": [
    {
      "anonymous": false,
      "inputs": [
        {
          "indexed": false,
          "internalType": "address",
          "name": "_creator",
          "type": "address"
        },
        {
          "indexed": false,
          "internalType": "address",
          "name": "_gigCompleter",
          "type": "address"
        },
        {
          "indexed": false,
          "internalType": "uint256",
          "name": "_gigId",
          "type": "uint256"
        }
      ],
      "name": "GigCompleted",
      "type": "event"
    },
    {
      "anonymous": false,
      "inputs": [
        {
          "indexed": false,
          "internalType": "address",
          "name": "_creator",
          "type": "address"
        },
        {
          "indexed": false,
          "internalType": "uint256",
          "name": "_gigId",
          "type": "uint256"
        }
      ],
      "name": "GigCreated",
      "type": "event"
    },
    {
      "anonymous": false,
      "inputs": [
        {
          "indexed": false,
          "internalType": "address",
          "name": "_creator",
          "type": "address"
        },
        {
          "indexed": false,
          "internalType": "address",
          "name": "_gigSubmitter",
          "type": "address"
        },
        {
          "indexed": false,
          "internalType": "uint256",
          "name": "_gigId",
          "type": "uint256"
        }
      ],
      "name": "GigSubmitted",
      "type": "event"
    },
    {
      "anonymous": false,
      "inputs": [
        {
          "indexed": false,
          "internalType": "address",
          "name": "_creator",
          "type": "address"
        },
        {
          "indexed": false,
          "internalType": "address",
          "name": "_taker",
          "type": "address"
        },
        {
          "indexed": false,
          "internalType": "uint256",
          "name": "_gigTaker",
          "type": "uint256"
        }
      ],
      "name": "GigTaken",
      "type": "event"
    },
    {
      "anonymous": false,
      "inputs": [
        {
          "indexed": false,
          "internalType": "uint256",
          "name": "_gigId",
          "type": "uint256"
        },
        {
          "indexed": false,
          "internalType": "address",
          "name": "_creator",
          "type": "address"
        },
        {
          "indexed": false,
          "internalType": "string",
          "name": "_gigHash",
          "type": "string"
        }
      ],
      "name": "GigValidated",
      "type": "event"
    },
    {
      "inputs": [
        {
          "internalType": "uint256",
          "name": "_gigId",
          "type": "uint256"
        },
        {
          "internalType": "uint16",
          "name": "rate",
          "type": "uint16"
        }
      ],
      "name": "completeGig",
      "outputs": [],
      "stateMutability": "nonpayable",
      "type": "function"
    },
    {
      "inputs": [
        {
          "internalType": "uint256",
          "name": "ditoCredits",
          "type": "uint256"
        }
      ],
      "name": "createGig",
      "outputs": [],
      "stateMutability": "nonpayable",
      "type": "function"
    },
    {
      "inputs": [
        {
          "internalType": "address",
          "name": "taker",
          "type": "address"
        }
      ],
      "name": "getCompletedGigs",
      "outputs": [
        {
          "internalType": "uint256[]",
          "name": "",
          "type": "uint256[]"
        }
      ],
      "stateMutability": "view",
      "type": "function"
    },
    {
      "inputs": [
        {
          "internalType": "address",
          "name": "owner",
          "type": "address"
        }
      ],
      "name": "getOwnedGigs",
      "outputs": [
        {
          "internalType": "uint256[]",
          "name": "",
          "type": "uint256[]"
        }
      ],
      "stateMutability": "view",
      "type": "function"
    },
    {
      "inputs": [
        {
          "internalType": "uint256",
          "name": "",
          "type": "uint256"
        }
      ],
      "name": "gigs",
      "outputs": [
        {
          "internalType": "address",
          "name": "owner",
          "type": "address"
        },
        {
          "internalType": "address",
          "name": "taker",
          "type": "address"
        },
        {
          "internalType": "string",
          "name": "gigHash",
          "type": "string"
        },
        {
          "internalType": "uint256",
          "name": "ditoCredits",
          "type": "uint256"
        },
        {
          "internalType": "enum Gigs.GigStatus",
          "name": "status",
          "type": "uint8"
        },
        {
          "internalType": "uint16",
          "name": "rate",
          "type": "uint16"
        }
      ],
      "stateMutability": "view",
      "type": "function"
    },
    {
      "inputs": [
        {
          "internalType": "uint256",
          "name": "_gigId",
          "type": "uint256"
        }
      ],
      "name": "submitGig",
      "outputs": [],
      "stateMutability": "nonpayable",
      "type": "function"
    },
    {
      "inputs": [
        {
          "internalType": "uint256",
          "name": "_gigId",
          "type": "uint256"
        }
      ],
      "name": "takeGig",
      "outputs": [],
      "stateMutability": "nonpayable",
      "type": "function"
    }
  ],
  "bytecode": "0x608060405234801561001057600080fd5b50610bdd806100206000396000f3fe608060405234801561001057600080fd5b506004361061007d5760003560e01c80638f9fa6591161005b5780638f9fa659146100e357806390c0e3ac146100f8578063970aea6e1461010b578063ad473e7c1461011e5761007d565b80635e3fbdc8146100825780636ac55f9e146100b0578063853be2ec146100d0575b600080fd5b61009561009036600461087f565b610131565b6040516100a7969594939291906108f6565b60405180910390f35b6100c36100be366004610851565b610205565b6040516100a791906109c6565b6100c36100de366004610851565b610271565b6100f66100f1366004610897565b6102db565b005b6100f661010636600461087f565b610411565b6100f661011936600461087f565b610522565b6100f661012c36600461087f565b610618565b60016020819052600091825260409091208054918101546002820180546001600160a01b0394851694909216929161016890610b6c565b80601f016020809104026020016040519081016040528092919081815260200182805461019490610b6c565b80156101e15780601f106101b6576101008083540402835291602001916101e1565b820191906000526020600020905b8154815290600101906020018083116101c457829003601f168201915b50505050600383015460049093015491929160ff81169150610100900461ffff1686565b6001600160a01b03811660009081526003602090815260409182902080548351818402810184019094528084526060939283018282801561026557602002820191906000526020600020905b815481526020019060010190808311610251575b50505050509050919050565b6001600160a01b03811660009081526002602090815260409182902080548351818402810184019094528084526060939283018282801561026557602002820191906000526020600020908154815260200190600101908083116102515750505050509050919050565b600260008381526001602052604090206004015460ff16600381111561031157634e487b7160e01b600052602160045260246000fd5b146103375760405162461bcd60e51b815260040161032e90610a41565b60405180910390fd5b60008281526004602052604090205460ff166103655760405162461bcd60e51b815260040161032e90610aaf565b600082815260016020818152604080842060048082018054600360ff19918216811762ffff00191661010061ffff8c1602179092553380895291865284882080548089018255908952868920018a9055898852918552958390208054909116905592909152905490517f18965f7cb0f2bf81d8f5fae54978b61e4154e39dcdfea46e2720c101f573a0b892610405926001600160a01b0316918690610989565b60405180910390a15050565b60008181526001602052604081206004015460ff16600381111561044557634e487b7160e01b600052602160045260246000fd5b146104625760405162461bcd60e51b815260040161032e90610af0565b60008181526004602052604090205460ff166104905760405162461bcd60e51b815260040161032e90610b35565b600081815260016020818152604080842080840180546001600160a01b031916339081179091556004808301805460ff19908116881790915590855295839020805490961690955592909152905490517f387100bfec5aa9f12a138745954aa52f3d14f060638824d3e24c351cfbdf0be292610517926001600160a01b0316918590610989565b60405180910390a150565b600160008281526001602052604090206004015460ff16600381111561055857634e487b7160e01b600052602160045260246000fd5b146105755760405162461bcd60e51b815260040161032e90610a0a565b60008181526004602052604090205460ff166105a35760405162461bcd60e51b815260040161032e90610a78565b60008181526001602081815260408084206004808201805460ff19908116600217909155908452948290208054909516909455919052905490517f5c25a9b3a86f7695f216b2f82005a2ccd5e44b684b316b520431658af7ff37a991610517916001600160a01b039091169033908590610989565b600061062460006107ab565b6040805160c081018252338152600060208083018290528351908101845281815292820192909252606081018590526080810182905260a08101829052919250600190610670816107ab565b81526020808201929092526040908101600020835181546001600160a01b039182166001600160a01b03199182161783558585015160018401805491909316911617905590830151805191926106ce926002850192909101906107b8565b506060820151816003015560808201518160040160006101000a81548160ff0219169083600381111561071157634e487b7160e01b600052602160045260246000fd5b021790555060a091909101516004918201805461ffff9092166101000262ffff0019909216919091179055336000908152600260209081526040808320805460018101825590845282842001859055848352929052908120805460ff1916905561077a906107af565b7fd0c6b36cc015057721a3ff9f5d2b2f826add0847fc06d6cba70cd0555d9fe3a433826040516104059291906109ad565b5490565b80546001019055565b8280546107c490610b6c565b90600052602060002090601f0160209004810192826107e6576000855561082c565b82601f106107ff57805160ff191683800117855561082c565b8280016001018555821561082c579182015b8281111561082c578251825591602001919060010190610811565b5061083892915061083c565b5090565b5b80821115610838576000815560010161083d565b600060208284031215610862578081fd5b81356001600160a01b0381168114610878578182fd5b9392505050565b600060208284031215610890578081fd5b5035919050565b600080604083850312156108a9578081fd5b82359150602083013561ffff811681146108c1578182fd5b809150509250929050565b600481106108ea57634e487b7160e01b600052602160045260246000fd5b9052565b61ffff169052565b600060018060a01b03808916835260208189168185015260c06040850152875191508160c0850152825b8281101561093c5788810182015185820160e001528101610920565b8281111561094d578360e084870101525b505060608301869052601f01601f1916820160e001905061097160808301856108cc565b61097e60a08301846108ee565b979650505050505050565b6001600160a01b039384168152919092166020820152604081019190915260600190565b6001600160a01b03929092168252602082015260400190565b6020808252825182820181905260009190848201906040850190845b818110156109fe578351835292840192918401916001016109e2565b50909695505050505050565b6020808252601a908201527f5468697320676967206973206e6f74207965742074616b656e2e000000000000604082015260600190565b6020808252601e908201527f5468697320676967206973206e6f7420796574207375626d69747465642e0000604082015260600190565b6020808252601c908201527f4769672074616b656e206e6f74207965742076616c6964617465642e00000000604082015260600190565b60208082526021908201527f476967207375626d697373696f6e206e6f74207965742076616c6964617465646040820152601760f91b606082015260800190565b60208082526025908201527f5468697320676967206973206e6f74206f70656e20666f72206265696e67207460408201526430b5b2b71760d91b606082015260800190565b6020808252601f908201527f476967206372656174696f6e206e6f74207965742076616c6964617465642e00604082015260600190565b600281046001821680610b8057607f821691505b60208210811415610ba157634e487b7160e01b600052602260045260246000fd5b5091905056fea2646970667358221220316d7c2dda833f30d6428e7bc95502f6676948a0e4d9876f0ac025392cc5f1a964736f6c63430008000033",
  "linkReferences": {},
  "deployedLinkReferences": {}
}