{
  "_format": "hh-sol-artifact-1",
  "contractName": "Gigs",
  "sourceName": "contracts/Gigs.sol",
  "abi": [
    {
      "anonymous": false,
      "inputs": [
        {
          "indexed": false,
          "internalType": "address",
          "name": "_creator",
          "type": "address"
        },
        {
          "indexed": false,
          "internalType": "address",
          "name": "_gigCompleter",
          "type": "address"
        },
        {
          "indexed": false,
          "internalType": "uint256",
          "name": "_gigId",
          "type": "uint256"
        }
      ],
      "name": "GigCompleted",
      "type": "event"
    },
    {
      "anonymous": false,
      "inputs": [
        {
          "indexed": false,
          "internalType": "address",
          "name": "_creator",
          "type": "address"
        },
        {
          "indexed": false,
          "internalType": "uint256",
          "name": "_gigId",
          "type": "uint256"
        }
      ],
      "name": "GigCreated",
      "type": "event"
    },
    {
      "anonymous": false,
      "inputs": [
        {
          "indexed": false,
          "internalType": "address",
          "name": "_creator",
          "type": "address"
        },
        {
          "indexed": false,
          "internalType": "address",
          "name": "_gigSubmitter",
          "type": "address"
        },
        {
          "indexed": false,
          "internalType": "uint256",
          "name": "_gigId",
          "type": "uint256"
        }
      ],
      "name": "GigSubmitted",
      "type": "event"
    },
    {
      "anonymous": false,
      "inputs": [
        {
          "indexed": false,
          "internalType": "address",
          "name": "_creator",
          "type": "address"
        },
        {
          "indexed": false,
          "internalType": "address",
          "name": "_taker",
          "type": "address"
        },
        {
          "indexed": false,
          "internalType": "uint256",
          "name": "_gigTaker",
          "type": "uint256"
        }
      ],
      "name": "GigTaken",
      "type": "event"
    },
    {
      "anonymous": false,
      "inputs": [
        {
          "indexed": false,
          "internalType": "uint256",
          "name": "_gigId",
          "type": "uint256"
        },
        {
          "indexed": false,
          "internalType": "address",
          "name": "_creator",
          "type": "address"
        },
        {
          "indexed": false,
          "internalType": "string",
          "name": "_gigHash",
          "type": "string"
        }
      ],
      "name": "GigValidated",
      "type": "event"
    },
    {
      "inputs": [
        {
          "internalType": "uint256",
          "name": "_gigId",
          "type": "uint256"
        },
        {
          "internalType": "uint16",
          "name": "rate",
          "type": "uint16"
        }
      ],
      "name": "completeGig",
      "outputs": [],
      "stateMutability": "nonpayable",
      "type": "function"
    },
    {
      "inputs": [
        {
          "internalType": "uint256",
          "name": "ditoCredits",
          "type": "uint256"
        }
      ],
      "name": "createGig",
      "outputs": [],
      "stateMutability": "nonpayable",
      "type": "function"
    },
    {
      "inputs": [
        {
          "internalType": "address",
          "name": "taker",
          "type": "address"
        }
      ],
      "name": "getCompletedGigs",
      "outputs": [
        {
          "internalType": "uint256[]",
          "name": "",
          "type": "uint256[]"
        }
      ],
      "stateMutability": "view",
      "type": "function"
    },
    {
      "inputs": [
        {
          "internalType": "address",
          "name": "owner",
          "type": "address"
        }
      ],
      "name": "getOwnedGigs",
      "outputs": [
        {
          "internalType": "uint256[]",
          "name": "",
          "type": "uint256[]"
        }
      ],
      "stateMutability": "view",
      "type": "function"
    },
    {
      "inputs": [
        {
          "internalType": "uint256",
          "name": "",
          "type": "uint256"
        }
      ],
      "name": "gigs",
      "outputs": [
        {
          "internalType": "address",
          "name": "owner",
          "type": "address"
        },
        {
          "internalType": "address",
          "name": "taker",
          "type": "address"
        },
        {
          "internalType": "string",
          "name": "gigHash",
          "type": "string"
        },
        {
          "internalType": "uint256",
          "name": "ditoCredits",
          "type": "uint256"
        },
        {
          "internalType": "enum Gigs.GigStatus",
          "name": "status",
          "type": "uint8"
        },
        {
          "internalType": "uint16",
          "name": "rate",
          "type": "uint16"
        }
      ],
      "stateMutability": "view",
      "type": "function"
    },
    {
      "inputs": [
        {
          "internalType": "uint256",
          "name": "_gigId",
          "type": "uint256"
        }
      ],
      "name": "submitGig",
      "outputs": [],
      "stateMutability": "nonpayable",
      "type": "function"
    },
    {
      "inputs": [
        {
          "internalType": "uint256",
          "name": "_gigId",
          "type": "uint256"
        }
      ],
      "name": "takeGig",
      "outputs": [],
      "stateMutability": "nonpayable",
      "type": "function"
    },
    {
      "inputs": [
        {
          "internalType": "uint256",
          "name": "_gigId",
          "type": "uint256"
        },
        {
          "internalType": "string",
          "name": "_gigHash",
          "type": "string"
        }
      ],
      "name": "validate",
      "outputs": [],
      "stateMutability": "nonpayable",
      "type": "function"
    }
  ],
  "bytecode": "0x608060405234801561001057600080fd5b50610cbe806100206000396000f3fe608060405234801561001057600080fd5b50600436106100885760003560e01c80638f9fa6591161005b5780638f9fa6591461027b57806390c0e3ac146102a2578063970aea6e146102bf578063ad473e7c146102dc57610088565b80635e3fbdc81461008d5780636ac55f9e14610166578063853be2ec146101dc5780638c11c9cd14610202575b600080fd5b6100aa600480360360208110156100a357600080fd5b50356102f9565b60405180876001600160a01b03168152602001866001600160a01b03168152602001806020018581526020018460038111156100e257fe5b81526020018361ffff168152602001828103825286818151815260200191508051906020019080838360005b8381101561012657818101518382015260200161010e565b50505050905090810190601f1680156101535780820380516001836020036101000a031916815260200191505b5097505050505050505060405180910390f35b61018c6004803603602081101561017c57600080fd5b50356001600160a01b03166103cc565b60408051602080825283518183015283519192839290830191858101910280838360005b838110156101c85781810151838201526020016101b0565b505050509050019250505060405180910390f35b61018c600480360360208110156101f257600080fd5b50356001600160a01b0316610438565b6102796004803603604081101561021857600080fd5b8135919081019060408101602082013564010000000081111561023a57600080fd5b82018360208201111561024c57600080fd5b8035906020019184600183028401116401000000008311171561026e57600080fd5b5090925090506104a2565b005b6102796004803603604081101561029157600080fd5b508035906020013561ffff16610568565b610279600480360360208110156102b857600080fd5b50356106db565b610279600480360360208110156102d557600080fd5b5035610831565b610279600480360360208110156102f257600080fd5b503561098b565b6001602081815260009283526040928390208054818401546002808401805488516101009882161598909802600019011691909104601f81018690048602870186019097528686526001600160a01b0392831696929091169492939091908301828280156103a85780601f1061037d576101008083540402835291602001916103a8565b820191906000526020600020905b81548152906001019060200180831161038b57829003601f168201915b50505050600383015460049093015491929160ff81169150610100900461ffff1686565b6001600160a01b03811660009081526003602090815260409182902080548351818402810184019094528084526060939283018282801561042c57602002820191906000526020600020905b815481526020019060010190808311610418575b50505050509050919050565b6001600160a01b03811660009081526002602090815260409182902080548351818402810184019094528084526060939283018282801561042c57602002820191906000526020600020908154815260200190600101908083116104185750505050509050919050565b6000838152600460209081526040808320805460ff1916600190811790915590915290206104d4906002018383610b25565b506000838152600160209081526040918290205482518681526001600160a01b0390911691810182905260609281018381529281018490527f24fd45e377679dfd37d84b16ae04862f2ccb29a5f56236d8102da755622175ef92869291869186919060808201848480828437600083820152604051601f909101601f191690920182900397509095505050505050a1505050565b600260008381526001602052604090206004015460ff16600381111561058a57fe5b146105dc576040805162461bcd60e51b815260206004820152601e60248201527f5468697320676967206973206e6f7420796574207375626d69747465642e0000604482015290519081900360640190fd5b60008281526004602052604090205460ff166106295760405162461bcd60e51b8152600401808060200182810382526021815260200180610c436021913960400191505060405180910390fd5b600082815260016020818152604080842060048082018054600360ff19918216811762ffff00191661010061ffff8c1602179092553380895291865284882080548089018255908952868920018a90558988529185529583902080549091169055928252915482516001600160a01b03909116815290810192909252818101849052517f18965f7cb0f2bf81d8f5fae54978b61e4154e39dcdfea46e2720c101f573a0b8916060908290030190a15050565b60008181526001602052604081206004015460ff1660038111156106fb57fe5b146107375760405162461bcd60e51b8152600401808060200182810382526025815260200180610c646025913960400191505060405180910390fd5b60008181526004602052604090205460ff1661079a576040805162461bcd60e51b815260206004820152601f60248201527f476967206372656174696f6e206e6f74207965742076616c6964617465642e00604482015290519081900360640190fd5b600081815260016020818152604080842080840180546001600160a01b031916339081179091556004808301805460ff199081168817909155908552958390208054909616909555928252915482516001600160a01b03909116815290810192909252818101839052517f387100bfec5aa9f12a138745954aa52f3d14f060638824d3e24c351cfbdf0be29181900360600190a150565b600160008281526001602052604090206004015460ff16600381111561085357fe5b146108a5576040805162461bcd60e51b815260206004820152601a60248201527f5468697320676967206973206e6f74207965742074616b656e2e000000000000604482015290519081900360640190fd5b60008181526004602052604090205460ff16610908576040805162461bcd60e51b815260206004820152601c60248201527f4769672074616b656e206e6f74207965742076616c6964617465642e00000000604482015290519081900360640190fd5b600081815260016020818152604080842060048082018054600260ff1991821617909155908452948290208054909516909455918152915481516001600160a01b0390911681523392810192909252818101839052517f5c25a9b3a86f7695f216b2f82005a2ccd5e44b684b316b520431658af7ff37a99181900360600190a150565b60006109976000610b18565b6040805160c081018252338152600060208083018290528351908101845281815292820192909252606081018590526080810182905260a081018290529192506001906109e381610b18565b81526020808201929092526040908101600020835181546001600160a01b039182166001600160a01b0319918216178355858501516001840180549190931691161790559083015180519192610a4192600285019290910190610bb1565b506060820151816003015560808201518160040160006101000a81548160ff02191690836003811115610a7057fe5b021790555060a091909101516004918201805461ffff9092166101000262ffff0019909216919091179055336000908152600260209081526040808320805460018101825590845282842001859055848352929052908120805460ff19169055610ad990610b1c565b604080513381526020810183905281517fd0c6b36cc015057721a3ff9f5d2b2f826add0847fc06d6cba70cd0555d9fe3a4929181900390910190a15050565b5490565b80546001019055565b828054600181600116156101000203166002900490600052602060002090601f016020900481019282610b5b5760008555610ba1565b82601f10610b745782800160ff19823516178555610ba1565b82800160010185558215610ba1579182015b82811115610ba1578235825591602001919060010190610b86565b50610bad929150610c2d565b5090565b828054600181600116156101000203166002900490600052602060002090601f016020900481019282610be75760008555610ba1565b82601f10610c0057805160ff1916838001178555610ba1565b82800160010185558215610ba1579182015b82811115610ba1578251825591602001919060010190610c12565b5b80821115610bad5760008155600101610c2e56fe476967207375626d697373696f6e206e6f74207965742076616c6964617465642e5468697320676967206973206e6f74206f70656e20666f72206265696e672074616b656e2ea264697066735822122084b758ce2c92ebe3ce084e364c894f56177b29ae5bd0ed884702f9fd71822d7c64736f6c63430007040033",
  "linkReferences": {},
  "deployedLinkReferences": {}
}