{"address":"0x0165878A594ca255338adfa4d48449f69242Eb8F","bytecode":"0x608060405234801561001057600080fd5b5060405161459138038061459183398101604081905261002f91610054565b600380546001600160a01b0319166001600160a01b0392909216919091179055610082565b600060208284031215610065578081fd5b81516001600160a01b038116811461007b578182fd5b9392505050565b614500806100916000396000f3fe60806040523480156200001157600080fd5b5060043610620000945760003560e01c8063a894d2aa1162000063578063a894d2aa146200011e578063b8ca27081462000128578063be8667691462000141578063c251b56514620001585762000094565b806348b2b32114620000995780637712f55114620000b25780639125268314620000c9578063993fa20b14620000f8575b600080fd5b620000b0620000aa366004620005e2565b62000171565b005b620000b0620000c33660046200053c565b62000221565b620000e0620000da366004620006e1565b620002d0565b604051620000ef919062000793565b60405180910390f35b6200010f6200010936600462000518565b620002fb565b604051620000ef919062000875565b620000e062000310565b620001326200031f565b604051620000ef91906200096d565b620000e06200015236600462000617565b62000325565b620001626200044d565b604051620000ef919062000826565b6001600160a01b03831660009081526020819052604090205460ff16620001b55760405162461bcd60e51b8152600401620001ac9062000936565b60405180910390fd5b604051633cf335a360e11b815283906001600160a01b038216906379e66b4690620001e7908690869060040162000976565b600060405180830381600087803b1580156200020257600080fd5b505af115801562000217573d6000803e3d6000fd5b5050505050505050565b6001600160a01b03851660009081526020819052604090205460ff166200025c5760405162461bcd60e51b8152600401620001ac9062000936565b604051637712f55160e01b815285906001600160a01b03821690637712f55190620002949033908990899089908990600401620007a7565b600060405180830381600087803b158015620002af57600080fd5b505af1158015620002c4573d6000803e3d6000fd5b50505050505050505050565b60018181548110620002e157600080fd5b6000918252602090912001546001600160a01b0316905081565b60006020819052908152604090205460ff1681565b6003546001600160a01b031681565b60025481565b6000808989898989898989600360009054906101000a90046001600160a01b031630604051620003559062000452565b6200036a9a9998979695949392919062000880565b604051809103906000f08015801562000387573d6000803e3d6000fd5b506001600160a01b0381166000818152602081905260408120805460ff1916600190811790915580548082018255918190527fb10e2d527612073b26eecdfd717e6a320cf44b4afac2b0732d9fcbe2b7fa0cf690910180546001600160a01b0319169092179091556002549192508291620004029162000984565b6002556040517fb4108a188495a1a681cdc0750af164011025a1773b41e93ff3e628adc037dc29906200043790839062000793565b60405180910390a19a9950505050505050505050565b606090565b613b0b80620009c083390190565b80356001600160a01b03811681146200047857600080fd5b919050565b600082601f8301126200048e578081fd5b813567ffffffffffffffff80821115620004ac57620004ac620009a9565b604051601f8301601f191681016020018281118282101715620004d357620004d3620009a9565b604052828152848301602001861015620004eb578384fd5b82602086016020830137918201602001929092529392505050565b803560ff811681146200047857600080fd5b6000602082840312156200052a578081fd5b620005358262000460565b9392505050565b600080600080600085870361012081121562000556578182fd5b620005618762000460565b955060c0601f198201121562000575578182fd5b5060208601935060e086013567ffffffffffffffff8082111562000597578283fd5b818801915088601f830112620005ab578283fd5b813581811115620005ba578384fd5b896020828501011115620005cc578384fd5b9699959850506020019561010001359392505050565b600080600060608486031215620005f7578283fd5b620006028462000460565b95602085013595506040909401359392505050565b600080600080600080600080610100898b03121562000634578283fd5b883567ffffffffffffffff808211156200064c578485fd5b6200065a8c838d016200047d565b995060208b0135985060408b0135975060608b01359150808211156200067e578485fd5b506200068d8b828c016200047d565b955050608089013560048110620006a2578384fd5b9350620006b260a08a0162000506565b9250620006c260c08a0162000506565b9150620006d260e08a0162000506565b90509295985092959890939650565b600060208284031215620006f3578081fd5b5035919050565b6001600160a01b03169052565b60008151808452815b818110156200072e5760208185018101518683018201520162000710565b81811115620007405782602083870101525b50601f01601f19169290920160200192915050565b803567ffffffffffffffff81168082146200076f57600080fd5b83525060ff620007826020830162000506565b1660208301525050565b60ff169052565b6001600160a01b0391909116815260200190565b6001600160a01b03861681526000610120620007c7602084018862000755565b620007d9606084016040890162000755565b620007eb60a084016080890162000755565b8060e0840152848184015250610140848682850137828501810191909152610100820192909252601f909201601f1916909101019392505050565b6020808252825182820181905260009190848201906040850190845b81811015620008695783516001600160a01b03168352928401929184019160010162000842565b50909695505050505050565b901515815260200190565b6000610140808352620008968184018e62000707565b90508b60208401528a60408401528281036060840152620008b8818b62000707565b91505060048810620008da57634e487b7160e01b600052602160045260246000fd5b87608083015260ff871660a0830152620008f860c08301876200078c565b6200090760e08301866200078c565b62000917610100830185620006fa565b62000927610120830184620006fa565b9b9a5050505050505050505050565b6020808252601a908201527f496e76616c696420636f6d6d756e697479206164647265737321000000000000604082015260600190565b90815260200190565b918252602082015260400190565b60008219821115620009a457634e487b7160e01b81526011600452602481fd5b500190565b634e487b7160e01b600052604160045260246000fdfe60806040523480156200001157600080fd5b5060405162003b0b38038062003b0b833981016040819052620000349162000a6a565b89816200004182620001c0565b600380546001600160a01b03199081166001600160a01b0393841617909155600580548216868416179055600680549091169184169190911790555060405186908690869086906200009390620008a5565b620000a2949392919062000c05565b604051809103906000f080158015620000bf573d6000803e3d6000fd5b50600480546001600160a01b0319166001600160a01b03929092169190911790558651620000f59060079060208a0190620008b3565b50600660009054906101000a90046001600160a01b03166001600160a01b031663b8ca27086040518163ffffffff1660e01b815260040160206040518083038186803b1580156200014557600080fd5b505afa1580156200015a573d6000803e3d6000fd5b505050506040513d601f19601f8201168201806040525081019062000180919062000b56565b62000195576200018f620001d9565b620001b0565b6200019f620001d9565b6008899055620001b089896200021c565b505050505050505050506200105a565b8051620001d5906002906020840190620008b3565b5050565b620001fb306000604080516020810190915260008152633938700090620003df565b6200021a306001604080516020810190915260008152600190620003df565b565b600954601861ffff9091161115620002515760405162461bcd60e51b8152600401620002489062000ddb565b60405180910390fd5b6000828152600b602052604090205460ff1615620002835760405162461bcd60e51b8152600401620002489062000e1f565b6005546040516331a9108f60e11b81526000916001600160a01b031690636352211e90620002b690869060040162000e97565b60206040518083038186803b158015620002cf57600080fd5b505afa158015620002e4573d6000803e3d6000fd5b505050506040513d601f19601f820116820180604052508101906200030a919062000a1c565b6000848152600b60205260408120805460ff19166001908117909155600c8054918201815582527fdf6966c971051c3d54ec59162606531493a51404a002842f56009d7e5cf4a8c7018590556009805492935061ffff9092169190620003708362000f53565b91906101000a81548161ffff021916908361ffff160217905550506200039d8183620004d560201b60201c565b7fe17e0e2cd88e2144dd54f3d823c30d4569092bcac1aabaec1129883e9cc12d2e818484604051620003d29392919062000be4565b60405180910390a1505050565b6001600160a01b038416620004085760405162461bcd60e51b8152600401620002489062000e56565b600062000414620004ff565b90506200043b81600087620004298862000504565b620004348862000504565b8762000560565b6000848152602081815260408083206001600160a01b0389168452909152812080548592906200046d90849062000eae565b92505081905550846001600160a01b031660006001600160a01b0316826001600160a01b031660008051602062003aeb8339815191528787604051620004b592919062000ea0565b60405180910390a4620004ce8160008787878762000568565b5050505050565b620001d53083600084604051806020016040528060008152506200069f60201b62000e7a1760201c565b335b90565b604080516001808252818301909252606091600091906020808301908036833701905050905082816000815181106200054d57634e487b7160e01b600052603260045260246000fd5b602090810291909101015290505b919050565b505050505050565b62000587846001600160a01b03166200085160201b620010301760201c565b15620005605760405163f23a6e6160e01b81526001600160a01b0385169063f23a6e6190620005c3908990899088908890889060040162000b9d565b602060405180830381600087803b158015620005de57600080fd5b505af192505050801562000611575060408051601f3d908101601f191682019092526200060e9181019062000a40565b60015b62000663576200062062000faa565b806200062d575062000649565b8060405162461bcd60e51b815260040162000248919062000c49565b60405162461bcd60e51b8152600401620002489062000c5e565b6001600160e01b0319811663f23a6e6160e01b14620006965760405162461bcd60e51b8152600401620002489062000cbb565b50505050505050565b6001600160a01b038416620006c85760405162461bcd60e51b8152600401620002489062000d4c565b620006d2620004ff565b6001600160a01b0316856001600160a01b03161480620007095750620006f7620004ff565b6003546001600160a01b039081169116145b8062000725575062000725856200071f620004ff565b62000857565b620007445760405162461bcd60e51b8152600401620002489062000d03565b600062000750620004ff565b905062000764818787620004298862000504565b6000848152602081815260408083206001600160a01b038a16845290915290205483811015620007a85760405162461bcd60e51b8152600401620002489062000d91565b620007b4848262000ec9565b6000868152602081815260408083206001600160a01b038c81168552925280832093909355881681529081208054869290620007f290849062000eae565b92505081905550856001600160a01b0316876001600160a01b0316836001600160a01b031660008051602062003aeb83398151915288886040516200083992919062000ea0565b60405180910390a46200069682888888888862000568565b3b151590565b60006200087083836200087760201b620010361760201c565b5092915050565b6001600160a01b03918216600090815260016020908152604080832093909416825291909152205460ff1690565b61031a80620037d183390190565b828054620008c19062000f16565b90600052602060002090601f016020900481019282620008e5576000855562000930565b82601f106200090057805160ff191683800117855562000930565b8280016001018555821562000930579182015b828111156200093057825182559160200191906001019062000913565b506200093e92915062000942565b5090565b5b808211156200093e576000815560010162000943565b80516001600160a01b03811681146200055b57600080fd5b8051600481106200055b57600080fd5b600082601f83011262000992578081fd5b81516001600160401b0380821115620009af57620009af62000f8e565b604051601f8301601f191681016020018281118282101715620009d657620009d662000f8e565b604052828152848301602001861015620009ee578384fd5b62000a0183602083016020880162000ee3565b95945050505050565b805160ff811681146200055b57600080fd5b60006020828403121562000a2e578081fd5b62000a398262000959565b9392505050565b60006020828403121562000a52578081fd5b81516001600160e01b03198116811462000a39578182fd5b6000806000806000806000806000806101408b8d03121562000a8a578586fd5b8a516001600160401b038082111562000aa1578788fd5b62000aaf8e838f0162000981565b9b5060208d01519a5060408d0151995060608d015191508082111562000ad3578788fd5b5062000ae28d828e0162000981565b97505062000af360808c0162000971565b955062000b0360a08c0162000a0a565b945062000b1360c08c0162000a0a565b935062000b2360e08c0162000a0a565b925062000b346101008c0162000959565b915062000b456101208c0162000959565b90509295989b9194979a5092959850565b60006020828403121562000b68578081fd5b5051919050565b6000815180845262000b8981602086016020860162000ee3565b601f01601f19169290920160200192915050565b6001600160a01b03868116825285166020820152604081018490526060810183905260a06080820181905260009062000bd99083018462000b6f565b979650505050505050565b6001600160a01b039390931683526020830191909152604082015260600190565b608081016004861062000c2857634e487b7160e01b600052602160045260246000fd5b94815260ff9384166020820152918316604083015290911660609091015290565b60006020825262000a39602083018462000b6f565b60208082526034908201527f455243313135353a207472616e7366657220746f206e6f6e204552433131353560408201527f526563656976657220696d706c656d656e746572000000000000000000000000606082015260800190565b60208082526028908201527f455243313135353a204552433131353552656365697665722072656a656374656040820152676420746f6b656e7360c01b606082015260800190565b60208082526029908201527f455243313135353a2063616c6c6572206973206e6f74206f776e6572206e6f7260408201526808185c1c1c9bdd995960ba1b606082015260800190565b60208082526025908201527f455243313135353a207472616e7366657220746f20746865207a65726f206164604082015264647265737360d81b606082015260800190565b6020808252602a908201527f455243313135353a20696e73756666696369656e742062616c616e636520666f60408201526939103a3930b739b332b960b11b606082015260800190565b60208082526024908201527f54686572652061726520616c7265616479203234206d656d626572732c20736f6040820152637272792160e01b606082015260800190565b60208082526018908201527f596f75206861766520616c7265616479206a6f696e6564210000000000000000604082015260600190565b60208082526021908201527f455243313135353a206d696e7420746f20746865207a65726f206164647265736040820152607360f81b606082015260800190565b90815260200190565b918252602082015260400190565b6000821982111562000ec45762000ec462000f78565b500190565b60008282101562000ede5762000ede62000f78565b500390565b60005b8381101562000f0057818101518382015260200162000ee6565b8381111562000f10576000848401525b50505050565b60028104600182168062000f2b57607f821691505b6020821081141562000f4d57634e487b7160e01b600052602260045260246000fd5b50919050565b600061ffff8083168181141562000f6e5762000f6e62000f78565b6001019392505050565b634e487b7160e01b600052601160045260246000fd5b634e487b7160e01b600052604160045260246000fd5b60e01c90565b600060443d101562000fbc5762000501565b600481823e6308c379a062000fd2825162000fa4565b1462000fde5762000501565b6040513d600319016004823e80513d6001600160401b0380831160248401831017156200100f575050505062000501565b828401925082519150808211156200102b575050505062000501565b503d83016020828401011115620010455750505062000501565b601f01601f1916810160200160405291505090565b612767806200106a6000396000f3fe608060405234801561001057600080fd5b50600436106101725760003560e01c806379e66b46116100de578063bc197c8111610097578063d50c737711610071578063d50c737714610339578063e985e9c51461034c578063f23a6e611461035f578063f242432a1461037257610172565b8063bc197c81146102f3578063bedf77a614610313578063cfeaeb8b1461032657610172565b806379e66b461461027d5780637c8da89d146102905780638f853115146102a5578063a22cb465146102b8578063abb88bcc146102cb578063b887b087146102e057610172565b80631a98ce75116101305780631a98ce75146101f85780632eb2c2d61461020b578063321c48f2146102205780634e1273f4146102355780635aa97b06146102555780637712f5511461026a57610172565b8062fdd58e14610177578063019c08f5146101a057806301ffc9a7146101a857806306fdde03146101c85780630e89341c146101dd578063135b4165146101f0575b600080fd5b61018a610185366004611d28565b610385565b604051610197919061254c565b60405180910390f35b61018a6103bf565b6101bb6101b6366004611dbb565b6103c5565b6040516101979190612102565b6101d0610426565b6040516101979190612159565b6101d06101eb366004611e34565b6104b4565b61018a610548565b61018a6102063660046119c9565b61054e565b61021e610219366004611a40565b610560565b005b61022861066e565b6040516101979190612122565b610248610243366004611d53565b6106fc565b60405161019791906120c1565b61025d6107d0565b604051610197919061208c565b61021e610278366004611cb3565b610990565b61021e61028b366004611e64565b610b70565b610298610d12565b604051610197919061214a565b61018a6102b3366004611e34565b610d1c565b61021e6102c6366004611c82565b610d3d565b6102d3610d4b565b6040516101979190611f46565b61021e6102ee366004611d28565b610d5a565b610306610301366004611afa565b610d77565b604051610197919061210d565b61021e6103213660046119c9565b610d88565b61021e610334366004611d28565b610dc2565b6101bb610347366004611e34565b610ddf565b6101bb61035a366004611a08565b610df4565b61030661036d366004611c1c565b610e00565b61021e610380366004611ba3565b610e11565b600081156103ae5760405162461bcd60e51b81526004016103a5906122d1565b60405180910390fd5b6103b88383611064565b5092915050565b60085481565b60006001600160e01b03198216636cdb3d1360e11b14806103f657506001600160e01b031982166303a24d0760e21b145b8061041157506001600160e01b03198216630271189760e51b145b806104205750610420826110b2565b92915050565b60078054610433906125bb565b80601f016020809104026020016040519081016040528092919081815260200182805461045f906125bb565b80156104ac5780601f10610481576101008083540402835291602001916104ac565b820191906000526020600020905b81548152906001019060200180831161048f57829003601f168201915b505050505081565b6060600280546104c3906125bb565b80601f01602080910402602001604051908101604052809291908181526020018280546104ef906125bb565b801561053c5780601f106105115761010080835404028352916020019161053c565b820191906000526020600020905b81548152906001019060200180831161051f57829003601f168201915b50505050509050919050565b600a5481565b600061055a8282611064565b50919050565b6105a48686808060200260200160405190810160405280939291908181526020018383602002808284376000920191909152506001925061059f915050565b6110d7565b156105c15760405162461bcd60e51b81526004016103a590612253565b610664888888888080602002602001604051908101604052809392919081815260200183836020028082843760009201919091525050604080516020808c0282810182019093528b82529093508b92508a91829185019084908082843760009201919091525050604080516020601f8b01819004810282018101909252898152925089915088908190840183828082843760009201919091525061113992505050565b5050505050505050565b6000600460009054906101000a90046001600160a01b03166001600160a01b0316636f2ddd936040518163ffffffff1660e01b815260040160206040518083038186803b1580156106be57600080fd5b505afa1580156106d2573d6000803e3d6000fd5b505050506040513d601f19601f820116820180604052508101906106f69190611df3565b90505b90565b606061073d8383808060200260200160405190810160405280939291908181526020018383602002808284376000920191909152506001925061059f915050565b1561075a5760405162461bcd60e51b81526004016103a590612253565b6107c7858580806020026020016040519081016040528093929190818152602001838360200280828437600092019190915250506040805160208089028281018201909352888252909350889250879182918501908490808284376000920191909152506113b792505050565b50949350505050565b6107d8611839565b60048054604051633a5b120360e11b81526000926001600160a01b03909216916374b624069161080b916001910161214a565b60206040518083038186803b15801561082357600080fd5b505afa158015610837573d6000803e3d6000fd5b505050506040513d601f19601f8201168201806040525081019061085b9190611e12565b60048054604051633a5b120360e11b81529293506000926001600160a01b03909116916374b6240691610891916002910161214a565b60206040518083038186803b1580156108a957600080fd5b505afa1580156108bd573d6000803e3d6000fd5b505050506040513d601f19601f820116820180604052508101906108e19190611e12565b60048054604051633a5b120360e11b81529293506000926001600160a01b03909116916374b6240691610917916003910161214a565b60206040518083038186803b15801561092f57600080fd5b505afa158015610943573d6000803e3d6000fd5b505050506040513d601f19601f820116820180604052508101906109679190611e12565b6040805160608101825261ffff9586168152938516602085015293169282019290925291505090565b600954601861ffff90911611156109b95760405162461bcd60e51b81526004016103a5906123f7565b600554604051630a73b69d60e01b81526001600160a01b0390911690630a73b69d906109ef908890889088908890600401611ffd565b600060405180830381600087803b158015610a0957600080fd5b505af1158015610a1d573d6000803e3d6000fd5b50506005546040516342ca962960e01b8152600093506001600160a01b0390911691506342ca962990610a54908990600401611f46565b60206040518083038186803b158015610a6c57600080fd5b505afa158015610a80573d6000803e3d6000fd5b505050506040513d601f19601f82011682018060405250810190610aa49190611e4c565b6000818152600b60205260408120805460ff19166001908117909155600c8054918201815582527fdf6966c971051c3d54ec59162606531493a51404a002842f56009d7e5cf4a8c7018290556009805492935061ffff9092169190610b08836125f0565b91906101000a81548161ffff021916908361ffff16021790555050610b2d8683610d5a565b7fe17e0e2cd88e2144dd54f3d823c30d4569092bcac1aabaec1129883e9cc12d2e868284604051610b609392919061206b565b60405180910390a1505050505050565b600954601861ffff9091161115610b995760405162461bcd60e51b81526004016103a5906123f7565b6000828152600b602052604090205460ff1615610bc85760405162461bcd60e51b81526004016103a59061243b565b6005546040516331a9108f60e11b81526000916001600160a01b031690636352211e90610bf990869060040161254c565b60206040518083038186803b158015610c1157600080fd5b505afa158015610c25573d6000803e3d6000fd5b505050506040513d601f19601f82011682018060405250810190610c4991906119ec565b6000848152600b60205260408120805460ff19166001908117909155600c8054918201815582527fdf6966c971051c3d54ec59162606531493a51404a002842f56009d7e5cf4a8c7018590556009805492935061ffff9092169190610cad836125f0565b91906101000a81548161ffff021916908361ffff16021790555050610cd28183610d5a565b7fe17e0e2cd88e2144dd54f3d823c30d4569092bcac1aabaec1129883e9cc12d2e818484604051610d059392919061206b565b60405180910390a1505050565b60095461ffff1681565b600c8181548110610d2c57600080fd5b600091825260209091200154905081565b610d4782826114d6565b5050565b6004546001600160a01b031690565b610d47308360008460405180602001604052806000815250610e7a565b63bc197c8160e01b95945050505050565b7fbea911b50ccdd2233b28faa49766c3cbd0631608f32e5a724d7b83b32b681ad081604051610db79190611f46565b60405180910390a150565b610d47823060008460405180602001604052806000815250610e7a565b600b6020526000908152604090205460ff1681565b60006103b88383611036565b63f23a6e6160e01b95945050505050565b8315610e2f5760405162461bcd60e51b81526004016103a590612253565b610e728686868686868080601f016020809104026020016040519081016040528093929190818152602001838380828437600092019190915250610e7a92505050565b505050505050565b6001600160a01b038416610ea05760405162461bcd60e51b81526004016103a590612316565b610ea86115a4565b6001600160a01b0316856001600160a01b03161480610edc5750610eca6115a4565b6003546001600160a01b039081169116145b80610eee5750610eee8561035a6115a4565b610f0a5760405162461bcd60e51b81526004016103a590612288565b6000610f146115a4565b9050610f34818787610f25886115a8565b610f2e886115a8565b87610e72565b6000848152602081815260408083206001600160a01b038a16845290915290205483811015610f755760405162461bcd60e51b81526004016103a5906123ad565b610f7f84826125a4565b6000868152602081815260408083206001600160a01b038c81168552925280832093909355881681529081208054869290610fbb90849061258c565b92505081905550856001600160a01b0316876001600160a01b0316836001600160a01b03167fc3d58168c5ae7397731d063d5bbf3d657854427343f4c083240f7aacaa2d0f628888604051611011929190612555565b60405180910390a4611027828888888888611601565b50505050505050565b3b151590565b6001600160a01b03918216600090815260016020908152604080832093909416825291909152205460ff1690565b60006001600160a01b03831661108c5760405162461bcd60e51b81526004016103a590612208565b506000908152602081815260408083206001600160a01b03949094168352929052205490565b60006001600160e01b03198216630271189760e51b148061042057506104208261170f565b6000805b835181101561112f578284828151811061110557634e487b7160e01b600052603260045260246000fd5b6020026020010151141561111d576001915050610420565b8061112781612612565b9150506110db565b5060009392505050565b815183511461115a5760405162461bcd60e51b81526004016103a590612504565b6001600160a01b0384166111805760405162461bcd60e51b81526004016103a590612316565b6111886115a4565b6001600160a01b0316856001600160a01b031614806111bc57506111aa6115a4565b6003546001600160a01b039081169116145b806111ce57506111ce8561035a6115a4565b6111ea5760405162461bcd60e51b81526004016103a59061235b565b60006111f46115a4565b9050611204818787878787610e72565b60005b845181101561135157600085828151811061123257634e487b7160e01b600052603260045260246000fd5b60200260200101519050600085838151811061125e57634e487b7160e01b600052603260045260246000fd5b602090810291909101810151600084815280835260408082206001600160a01b038e1683529093529190912054909150818110156112ae5760405162461bcd60e51b81526004016103a5906123ad565b6112b882826125a4565b60008085815260200190815260200160002060008c6001600160a01b03166001600160a01b03168152602001908152602001600020819055508160008085815260200190815260200160002060008b6001600160a01b03166001600160a01b031681526020019081526020016000206000828254611336919061258c565b925050819055505050508061134a90612612565b9050611207565b50846001600160a01b0316866001600160a01b0316826001600160a01b03167f4a39dc06d4c0dbc64b70af90fd698a233a518aa5d07e595d983b8c0526c8f7fb87876040516113a19291906120d4565b60405180910390a4610e7281878787878761174f565b606081518351146113da5760405162461bcd60e51b81526004016103a5906124bb565b600083516001600160401b0381111561140357634e487b7160e01b600052604160045260246000fd5b60405190808252806020026020018201604052801561142c578160200160208202803683370190505b50905060005b84518110156114ce5761149385828151811061145e57634e487b7160e01b600052603260045260246000fd5b602002602001015185838151811061148657634e487b7160e01b600052603260045260246000fd5b6020026020010151610385565b8282815181106114b357634e487b7160e01b600052603260045260246000fd5b60209081029190910101526114c781612612565b9050611432565b509392505050565b816001600160a01b03166114e86115a4565b6001600160a01b0316141561150f5760405162461bcd60e51b81526004016103a590612472565b806001600061151c6115a4565b6001600160a01b03908116825260208083019390935260409182016000908120918716808252919093529120805460ff1916921515929092179091556115606115a4565b6001600160a01b03167f17307eab39ab6107e8899845ad3d59bd9653f200f220920489ca2b5937696c31836040516115989190612102565b60405180910390a35050565b3390565b604080516001808252818301909252606091600091906020808301908036833701905050905082816000815181106115f057634e487b7160e01b600052603260045260246000fd5b602090810291909101015292915050565b611613846001600160a01b0316611030565b15610e725760405163f23a6e6160e01b81526001600160a01b0385169063f23a6e619061164c9089908990889088908890600401611fb8565b602060405180830381600087803b15801561166657600080fd5b505af1925050508015611696575060408051601f3d908101601f1916820190925261169391810190611dd7565b60015b6116df576116a261265f565b806116ad57506116c7565b8060405162461bcd60e51b81526004016103a59190612159565b60405162461bcd60e51b81526004016103a59061216c565b6001600160e01b0319811663f23a6e6160e01b146110275760405162461bcd60e51b81526004016103a5906121c0565b60006001600160e01b03198216636cdb3d1360e11b148061174057506001600160e01b031982166303a24d0760e21b145b80610420575061042082611820565b611761846001600160a01b0316611030565b15610e725760405163bc197c8160e01b81526001600160a01b0385169063bc197c819061179a9089908990889088908890600401611f5a565b602060405180830381600087803b1580156117b457600080fd5b505af19250505080156117e4575060408051601f3d908101601f191682019092526117e191810190611dd7565b60015b6117f0576116a261265f565b6001600160e01b0319811663bc197c8160e01b146110275760405162461bcd60e51b81526004016103a5906121c0565b6001600160e01b031981166301ffc9a760e01b14919050565b60405180606001604052806003906020820280368337509192915050565b60008083601f840112611868578182fd5b5081356001600160401b0381111561187e578182fd5b602083019150836020808302850101111561189857600080fd5b9250929050565b600082601f8301126118af578081fd5b813560206001600160401b038211156118ca576118ca612643565b8082026118d8828201612563565b8381528281019086840183880185018910156118f2578687fd5b8693505b858410156119145780358352600193909301929184019184016118f6565b50979650505050505050565b60008083601f840112611931578182fd5b5081356001600160401b03811115611947578182fd5b60208301915083602082850101111561189857600080fd5b600082601f83011261196f578081fd5b81356001600160401b0381111561198857611988612643565b61199b601f8201601f1916602001612563565b8181528460208386010111156119af578283fd5b816020850160208301379081016020019190915292915050565b6000602082840312156119da578081fd5b81356119e581612703565b9392505050565b6000602082840312156119fd578081fd5b81516119e581612703565b60008060408385031215611a1a578081fd5b8235611a2581612703565b91506020830135611a3581612703565b809150509250929050565b60008060008060008060008060a0898b031215611a5b578384fd5b8835611a6681612703565b97506020890135611a7681612703565b965060408901356001600160401b0380821115611a91578586fd5b611a9d8c838d01611857565b909850965060608b0135915080821115611ab5578586fd5b611ac18c838d01611857565b909650945060808b0135915080821115611ad9578384fd5b50611ae68b828c01611920565b999c989b5096995094979396929594505050565b600080600080600060a08688031215611b11578081fd5b8535611b1c81612703565b94506020860135611b2c81612703565b935060408601356001600160401b0380821115611b47578283fd5b611b5389838a0161189f565b94506060880135915080821115611b68578283fd5b611b7489838a0161189f565b93506080880135915080821115611b89578283fd5b50611b968882890161195f565b9150509295509295909350565b60008060008060008060a08789031215611bbb578182fd5b8635611bc681612703565b95506020870135611bd681612703565b9450604087013593506060870135925060808701356001600160401b03811115611bfe578283fd5b611c0a89828a01611920565b979a9699509497509295939492505050565b600080600080600060a08688031215611c33578283fd5b8535611c3e81612703565b94506020860135611c4e81612703565b9350604086013592506060860135915060808601356001600160401b03811115611c76578182fd5b611b968882890161195f565b60008060408385031215611c94578182fd5b8235611c9f81612703565b915060208301358015158114611a35578182fd5b6000806000806000858703610120811215611ccc578384fd5b8635611cd781612703565b955060c0601f1982011215611cea578384fd5b5060208601935060e08601356001600160401b03811115611d09578384fd5b611d1588828901611920565b9699959850966101000135949350505050565b60008060408385031215611d3a578182fd5b8235611d4581612703565b946020939093013593505050565b60008060008060408587031215611d68578182fd5b84356001600160401b0380821115611d7e578384fd5b611d8a88838901611857565b90965094506020870135915080821115611da2578384fd5b50611daf87828801611857565b95989497509550505050565b600060208284031215611dcc578081fd5b81356119e58161271b565b600060208284031215611de8578081fd5b81516119e58161271b565b600060208284031215611e04578081fd5b8151600481106119e5578182fd5b600060208284031215611e23578081fd5b815161ffff811681146119e5578182fd5b600060208284031215611e45578081fd5b5035919050565b600060208284031215611e5d578081fd5b5051919050565b60008060408385031215611e76578182fd5b50508035926020909101359150565b6000815180845260208085019450808401835b83811015611eb457815187529582019590820190600101611e98565b509495945050505050565b60008151808452815b81811015611ee457602081850181015186830182015201611ec8565b81811115611ef55782602083870101525b50601f01601f19169290920160200192915050565b80356001600160401b038116808214611f2257600080fd5b835250602081013560ff8116808214611f3a57600080fd5b80602085015250505050565b6001600160a01b0391909116815260200190565b6001600160a01b0386811682528516602082015260a060408201819052600090611f8690830186611e85565b8281036060840152611f988186611e85565b90508281036080840152611fac8185611ebf565b98975050505050505050565b6001600160a01b03868116825285166020820152604081018490526060810183905260a060808201819052600090611ff290830184611ebf565b979650505050505050565b6001600160a01b0385168152600061010061201b6020840187611f0a565b61202b6060840160408801611f0a565b61203b60a0840160808801611f0a565b8060e0840152838184015250610120838582850137828401810191909152601f909201601f191601019392505050565b6001600160a01b039390931683526020830191909152604082015260600190565b60608101818360005b60038110156120b857815161ffff16835260209283019290910190600101612095565b50505092915050565b6000602082526119e56020830184611e85565b6000604082526120e76040830185611e85565b82810360208401526120f98185611e85565b95945050505050565b901515815260200190565b6001600160e01b031991909116815260200190565b602081016004831061214457634e487b7160e01b600052602160045260246000fd5b91905290565b61ffff91909116815260200190565b6000602082526119e56020830184611ebf565b60208082526034908201527f455243313135353a207472616e7366657220746f206e6f6e20455243313135356040820152732932b1b2b4bb32b91034b6b83632b6b2b73a32b960611b606082015260800190565b60208082526028908201527f455243313135353a204552433131353552656365697665722072656a656374656040820152676420746f6b656e7360c01b606082015260800190565b6020808252602b908201527f455243313135353a2062616c616e636520717565727920666f7220746865207a60408201526a65726f206164647265737360a81b606082015260800190565b6020808252818101527f436f6d6d756e697479204e46542063616e277420626520747261736665726564604082015260600190565b60208082526029908201527f455243313135353a2063616c6c6572206973206e6f74206f776e6572206e6f7260408201526808185c1c1c9bdd995960ba1b606082015260800190565b60208082526025908201527f436f6d6d756e697479204e465420646f65736e2774206861766520612062616c60408201526430b731b29760d91b606082015260800190565b60208082526025908201527f455243313135353a207472616e7366657220746f20746865207a65726f206164604082015264647265737360d81b606082015260800190565b60208082526032908201527f455243313135353a207472616e736665722063616c6c6572206973206e6f74206040820152711bdddb995c881b9bdc88185c1c1c9bdd995960721b606082015260800190565b6020808252602a908201527f455243313135353a20696e73756666696369656e742062616c616e636520666f60408201526939103a3930b739b332b960b11b606082015260800190565b60208082526024908201527f54686572652061726520616c7265616479203234206d656d626572732c20736f6040820152637272792160e01b606082015260800190565b60208082526018908201527f596f75206861766520616c7265616479206a6f696e6564210000000000000000604082015260600190565b60208082526029908201527f455243313135353a2073657474696e6720617070726f76616c20737461747573604082015268103337b91039b2b63360b91b606082015260800190565b60208082526029908201527f455243313135353a206163636f756e747320616e6420696473206c656e677468604082015268040dad2e6dac2e8c6d60bb1b606082015260800190565b60208082526028908201527f455243313135353a2069647320616e6420616d6f756e7473206c656e677468206040820152670dad2e6dac2e8c6d60c31b606082015260800190565b90815260200190565b918252602082015260400190565b6040518181016001600160401b038111828210171561258457612584612643565b604052919050565b6000821982111561259f5761259f61262d565b500190565b6000828210156125b6576125b661262d565b500390565b6002810460018216806125cf57607f821691505b6020821081141561055a57634e487b7160e01b600052602260045260246000fd5b600061ffff808316818114156126085761260861262d565b6001019392505050565b60006000198214156126265761262661262d565b5060010190565b634e487b7160e01b600052601160045260246000fd5b634e487b7160e01b600052604160045260246000fd5b60e01c90565b600060443d101561266f576106f9565b600481823e6308c379a06126838251612659565b1461268d576106f9565b6040513d600319016004823e80513d6001600160401b0381602484011181841117156126bc57505050506106f9565b828401925082519150808211156126d657505050506106f9565b503d830160208284010111156126ee575050506106f9565b601f01601f1916810160200160405291505090565b6001600160a01b038116811461271857600080fd5b50565b6001600160e01b03198116811461271857600080fdfea26469706673582212208504053142bdbf3f4dd0baedbef7bb618c96bc4c3f2bbf78300238cb6b3f89e864736f6c63430008000033608060405234801561001057600080fd5b5060405161031a38038061031a83398101604081905261002f9161013b565b60008054336001600160a01b031991821681179092556001805490911690911780825585919060ff60a01b1916600160a01b83600381111561008157634e487b7160e01b600052602160045260246000fd5b021790555060026020527fe90b7bceb6e7df5418fb78d8ee546e97c83a08bbccc01a0644d599ccd2a7c2e0805460ff94851661ffff19918216179091557f679795a0195a1b76cdebb7c51d74e058aee92919b8c3389af86ef24535e8a28c80549385169382169390931790925560036000527f88601476d11616a71c5be67555bd1dff4b1cbf21533d2669b768b61518cfe1c3805491909316911617905550610193565b805160ff8116811461013657600080fd5b919050565b60008060008060808587031215610150578384fd5b84516004811061015e578485fd5b935061016c60208601610125565b925061017a60408601610125565b915061018860608601610125565b905092959194509250565b610178806101a26000396000f3fe608060405234801561001057600080fd5b50600436106100415760003560e01c80636f2ddd931461004657806374b624061461006457806386e476dd14610084575b600080fd5b61004e610099565b60405161005b919061010b565b60405180910390f35b6100776100723660046100ce565b6100a9565b60405161005b9190610133565b61008c6100bf565b60405161005b91906100f7565b600154600160a01b900460ff1681565b60026020526000908152604090205461ffff1681565b6000546001600160a01b031681565b6000602082840312156100df578081fd5b813561ffff811681146100f0578182fd5b9392505050565b6001600160a01b0391909116815260200190565b602081016004831061012d57634e487b7160e01b600052602160045260246000fd5b91905290565b61ffff9190911681526020019056fea26469706673582212205a7c0e87ec6dd7195867143122fc453bc47e0a4621a468b5c837e8db5b5bbea964736f6c63430008000033c3d58168c5ae7397731d063d5bbf3d657854427343f4c083240f7aacaa2d0f62a2646970667358221220332cdb0dc37407096b7ffdd5d5a510076bcac1c25e1b556a6fbe3acc444b466764736f6c63430008000033","abi":[{"inputs":[{"internalType":"address","name":"_skillWalletAddress","type":"address"}],"stateMutability":"nonpayable","type":"constructor"},{"anonymous":false,"inputs":[{"indexed":false,"internalType":"address","name":"_newCommunityAddress","type":"address"}],"name":"CommunityCreated","type":"event"},{"inputs":[{"internalType":"uint256","name":"","type":"uint256"}],"name":"communityAddresses","outputs":[{"internalType":"address","name":"","type":"address"}],"stateMutability":"view","type":"function"},{"inputs":[{"internalType":"string","name":"_url","type":"string"},{"internalType":"uint256","name":"_ownerId","type":"uint256"},{"internalType":"uint256","name":"_ownerCredits","type":"uint256"},{"internalType":"string","name":"_name","type":"string"},{"internalType":"enum Types.Template","name":"_template","type":"uint8"},{"internalType":"uint8","name":"_positionalValue1","type":"uint8"},{"internalType":"uint8","name":"_positionalValue2","type":"uint8"},{"internalType":"uint8","name":"_positionalValue3","type":"uint8"}],"name":"createCommunity","outputs":[{"internalType":"address","name":"_communityAddress","type":"address"}],"stateMutability":"nonpayable","type":"function"},{"inputs":[],"name":"getCommunities","outputs":[{"internalType":"address[]","name":"communityAddresses","type":"address[]"}],"stateMutability":"view","type":"function"},{"inputs":[{"internalType":"address","name":"","type":"address"}],"name":"isCommunity","outputs":[{"internalType":"bool","name":"","type":"bool"}],"stateMutability":"view","type":"function"},{"inputs":[{"internalType":"address","name":"community","type":"address"},{"internalType":"uint256","name":"skillWalletTokenId","type":"uint256"},{"internalType":"uint256","name":"credits","type":"uint256"}],"name":"joinExistingSW","outputs":[],"stateMutability":"nonpayable","type":"function"},{"inputs":[{"internalType":"address","name":"community","type":"address"},{"components":[{"components":[{"internalType":"uint64","name":"displayStringId","type":"uint64"},{"internalType":"uint8","name":"level","type":"uint8"}],"internalType":"struct Types.Skill","name":"skill1","type":"tuple"},{"components":[{"internalType":"uint64","name":"displayStringId","type":"uint64"},{"internalType":"uint8","name":"level","type":"uint8"}],"internalType":"struct Types.Skill","name":"skill2","type":"tuple"},{"components":[{"internalType":"uint64","name":"displayStringId","type":"uint64"},{"internalType":"uint8","name":"level","type":"uint8"}],"internalType":"struct Types.Skill","name":"skill3","type":"tuple"}],"internalType":"struct Types.SkillSet","name":"skillSet","type":"tuple"},{"internalType":"string","name":"uri","type":"string"},{"internalType":"uint256","name":"credits","type":"uint256"}],"name":"joinNewMember","outputs":[],"stateMutability":"nonpayable","type":"function"},{"inputs":[],"name":"numOfCommunities","outputs":[{"internalType":"uint256","name":"","type":"uint256"}],"stateMutability":"view","type":"function"},{"inputs":[],"name":"skillWalletAddress","outputs":[{"internalType":"address","name":"","type":"address"}],"stateMutability":"view","type":"function"}]}