{
  "_format": "hh-sol-artifact-1",
  "contractName": "SkillWallet",
  "sourceName": "contracts/SkillWallet.sol",
  "abi": [
    {
      "inputs": [],
      "stateMutability": "nonpayable",
      "type": "constructor"
    },
    {
      "anonymous": false,
      "inputs": [
        {
          "indexed": true,
          "internalType": "address",
          "name": "owner",
          "type": "address"
        },
        {
          "indexed": true,
          "internalType": "address",
          "name": "approved",
          "type": "address"
        },
        {
          "indexed": true,
          "internalType": "uint256",
          "name": "tokenId",
          "type": "uint256"
        }
      ],
      "name": "Approval",
      "type": "event"
    },
    {
      "anonymous": false,
      "inputs": [
        {
          "indexed": true,
          "internalType": "address",
          "name": "owner",
          "type": "address"
        },
        {
          "indexed": true,
          "internalType": "address",
          "name": "operator",
          "type": "address"
        },
        {
          "indexed": false,
          "internalType": "bool",
          "name": "approved",
          "type": "bool"
        }
      ],
      "name": "ApprovalForAll",
      "type": "event"
    },
    {
      "anonymous": false,
      "inputs": [
        {
          "indexed": true,
          "internalType": "address",
          "name": "previousOwner",
          "type": "address"
        },
        {
          "indexed": true,
          "internalType": "address",
          "name": "newOwner",
          "type": "address"
        }
      ],
      "name": "OwnershipTransferred",
      "type": "event"
    },
    {
      "anonymous": false,
      "inputs": [
        {
          "indexed": true,
          "internalType": "uint256",
          "name": "skillWalletId",
          "type": "uint256"
        },
        {
          "components": [
            {
              "components": [
                {
                  "internalType": "uint64",
                  "name": "displayStringId",
                  "type": "uint64"
                },
                {
                  "internalType": "uint8",
                  "name": "level",
                  "type": "uint8"
                }
              ],
              "internalType": "struct Types.Skill",
              "name": "skill1",
              "type": "tuple"
            },
            {
              "components": [
                {
                  "internalType": "uint64",
                  "name": "displayStringId",
                  "type": "uint64"
                },
                {
                  "internalType": "uint8",
                  "name": "level",
                  "type": "uint8"
                }
              ],
              "internalType": "struct Types.Skill",
              "name": "skill2",
              "type": "tuple"
            },
            {
              "components": [
                {
                  "internalType": "uint64",
                  "name": "displayStringId",
                  "type": "uint64"
                },
                {
                  "internalType": "uint8",
                  "name": "level",
                  "type": "uint8"
                }
              ],
              "internalType": "struct Types.Skill",
              "name": "skill3",
              "type": "tuple"
            }
          ],
          "indexed": false,
          "internalType": "struct Types.SkillSet",
          "name": "newSkillSet",
          "type": "tuple"
        }
      ],
      "name": "SkillSetUpdated",
      "type": "event"
    },
    {
      "anonymous": false,
      "inputs": [
        {
          "indexed": true,
          "internalType": "uint256",
          "name": "skillWalletId",
          "type": "uint256"
        }
      ],
      "name": "SkillWalletActivated",
      "type": "event"
    },
    {
      "anonymous": false,
      "inputs": [
        {
          "indexed": true,
          "internalType": "uint256",
          "name": "skillWalletId",
          "type": "uint256"
        },
        {
          "indexed": false,
          "internalType": "address",
          "name": "newCommunity",
          "type": "address"
        }
      ],
      "name": "SkillWalletCommunityChanged",
      "type": "event"
    },
    {
      "anonymous": false,
      "inputs": [
        {
          "indexed": true,
          "internalType": "address",
          "name": "skillWalletOwner",
          "type": "address"
        },
        {
          "indexed": true,
          "internalType": "address",
          "name": "community",
          "type": "address"
        },
        {
          "indexed": true,
          "internalType": "uint256",
          "name": "skillWalletId",
          "type": "uint256"
        },
        {
          "components": [
            {
              "components": [
                {
                  "internalType": "uint64",
                  "name": "displayStringId",
                  "type": "uint64"
                },
                {
                  "internalType": "uint8",
                  "name": "level",
                  "type": "uint8"
                }
              ],
              "internalType": "struct Types.Skill",
              "name": "skill1",
              "type": "tuple"
            },
            {
              "components": [
                {
                  "internalType": "uint64",
                  "name": "displayStringId",
                  "type": "uint64"
                },
                {
                  "internalType": "uint8",
                  "name": "level",
                  "type": "uint8"
                }
              ],
              "internalType": "struct Types.Skill",
              "name": "skill2",
              "type": "tuple"
            },
            {
              "components": [
                {
                  "internalType": "uint64",
                  "name": "displayStringId",
                  "type": "uint64"
                },
                {
                  "internalType": "uint8",
                  "name": "level",
                  "type": "uint8"
                }
              ],
              "internalType": "struct Types.Skill",
              "name": "skill3",
              "type": "tuple"
            }
          ],
          "indexed": false,
          "internalType": "struct Types.SkillSet",
          "name": "skillSet",
          "type": "tuple"
        }
      ],
      "name": "SkillWalletCreated",
      "type": "event"
    },
    {
      "anonymous": false,
      "inputs": [
        {
          "indexed": true,
          "internalType": "address",
          "name": "from",
          "type": "address"
        },
        {
          "indexed": true,
          "internalType": "address",
          "name": "to",
          "type": "address"
        },
        {
          "indexed": true,
          "internalType": "uint256",
          "name": "tokenId",
          "type": "uint256"
        }
      ],
      "name": "Transfer",
      "type": "event"
    },
    {
      "inputs": [
        {
          "internalType": "uint256",
          "name": "skillWalletId",
          "type": "uint256"
        }
      ],
      "name": "activateSkillWallet",
      "outputs": [],
      "stateMutability": "nonpayable",
      "type": "function"
    },
    {
      "inputs": [
        {
          "internalType": "address",
          "name": "to",
          "type": "address"
        },
        {
          "internalType": "uint256",
          "name": "tokenId",
          "type": "uint256"
        }
      ],
      "name": "approve",
      "outputs": [],
      "stateMutability": "nonpayable",
      "type": "function"
    },
    {
      "inputs": [
        {
          "internalType": "address",
          "name": "owner",
          "type": "address"
        }
      ],
      "name": "balanceOf",
      "outputs": [
        {
          "internalType": "uint256",
          "name": "",
          "type": "uint256"
        }
      ],
      "stateMutability": "view",
      "type": "function"
    },
    {
      "inputs": [],
      "name": "baseURI",
      "outputs": [
        {
          "internalType": "string",
          "name": "",
          "type": "string"
        }
      ],
      "stateMutability": "view",
      "type": "function"
    },
    {
      "inputs": [
        {
          "internalType": "uint256",
          "name": "skillWalletId",
          "type": "uint256"
        }
      ],
      "name": "changeCommunity",
      "outputs": [],
      "stateMutability": "nonpayable",
      "type": "function"
    },
    {
      "inputs": [
        {
          "internalType": "address",
          "name": "skillWalletOwner",
          "type": "address"
        },
        {
          "components": [
            {
              "components": [
                {
                  "internalType": "uint64",
                  "name": "displayStringId",
                  "type": "uint64"
                },
                {
                  "internalType": "uint8",
                  "name": "level",
                  "type": "uint8"
                }
              ],
              "internalType": "struct Types.Skill",
              "name": "skill1",
              "type": "tuple"
            },
            {
              "components": [
                {
                  "internalType": "uint64",
                  "name": "displayStringId",
                  "type": "uint64"
                },
                {
                  "internalType": "uint8",
                  "name": "level",
                  "type": "uint8"
                }
              ],
              "internalType": "struct Types.Skill",
              "name": "skill2",
              "type": "tuple"
            },
            {
              "components": [
                {
                  "internalType": "uint64",
                  "name": "displayStringId",
                  "type": "uint64"
                },
                {
                  "internalType": "uint8",
                  "name": "level",
                  "type": "uint8"
                }
              ],
              "internalType": "struct Types.Skill",
              "name": "skill3",
              "type": "tuple"
            }
          ],
          "internalType": "struct Types.SkillSet",
          "name": "skillSet",
          "type": "tuple"
        },
        {
          "internalType": "string",
          "name": "url",
          "type": "string"
        }
      ],
      "name": "create",
      "outputs": [],
      "stateMutability": "nonpayable",
      "type": "function"
    },
    {
      "inputs": [
        {
          "internalType": "uint256",
          "name": "skillWalletId",
          "type": "uint256"
        }
      ],
      "name": "getActiveCommunity",
      "outputs": [
        {
          "internalType": "address",
          "name": "community",
          "type": "address"
        }
      ],
      "stateMutability": "view",
      "type": "function"
    },
    {
      "inputs": [
        {
          "internalType": "uint256",
          "name": "tokenId",
          "type": "uint256"
        }
      ],
      "name": "getApproved",
      "outputs": [
        {
          "internalType": "address",
          "name": "",
          "type": "address"
        }
      ],
      "stateMutability": "view",
      "type": "function"
    },
    {
      "inputs": [
        {
          "internalType": "uint256",
          "name": "skillWalletId",
          "type": "uint256"
        }
      ],
      "name": "getCommunityHistory",
      "outputs": [
        {
          "internalType": "address[]",
          "name": "communities",
          "type": "address[]"
        }
      ],
      "stateMutability": "view",
      "type": "function"
    },
    {
      "inputs": [
        {
          "internalType": "uint256",
          "name": "skillWalletId",
          "type": "uint256"
        }
      ],
      "name": "getSkillSet",
      "outputs": [
        {
          "components": [
            {
              "components": [
                {
                  "internalType": "uint64",
                  "name": "displayStringId",
                  "type": "uint64"
                },
                {
                  "internalType": "uint8",
                  "name": "level",
                  "type": "uint8"
                }
              ],
              "internalType": "struct Types.Skill",
              "name": "skill1",
              "type": "tuple"
            },
            {
              "components": [
                {
                  "internalType": "uint64",
                  "name": "displayStringId",
                  "type": "uint64"
                },
                {
                  "internalType": "uint8",
                  "name": "level",
                  "type": "uint8"
                }
              ],
              "internalType": "struct Types.Skill",
              "name": "skill2",
              "type": "tuple"
            },
            {
              "components": [
                {
                  "internalType": "uint64",
                  "name": "displayStringId",
                  "type": "uint64"
                },
                {
                  "internalType": "uint8",
                  "name": "level",
                  "type": "uint8"
                }
              ],
              "internalType": "struct Types.Skill",
              "name": "skill3",
              "type": "tuple"
            }
          ],
          "internalType": "struct Types.SkillSet",
          "name": "skillSet",
          "type": "tuple"
        }
      ],
      "stateMutability": "view",
      "type": "function"
    },
    {
      "inputs": [
        {
          "internalType": "address",
          "name": "skillWalletOwner",
          "type": "address"
        }
      ],
      "name": "getSkillWalletIdByOwner",
      "outputs": [
        {
          "internalType": "uint256",
          "name": "",
          "type": "uint256"
        }
      ],
      "stateMutability": "view",
      "type": "function"
    },
    {
      "inputs": [],
      "name": "getTotalSkillWalletsRegistered",
      "outputs": [
        {
          "internalType": "uint256",
          "name": "",
          "type": "uint256"
        }
      ],
      "stateMutability": "view",
      "type": "function"
    },
    {
      "inputs": [
        {
          "internalType": "address",
          "name": "owner",
          "type": "address"
        },
        {
          "internalType": "address",
          "name": "operator",
          "type": "address"
        }
      ],
      "name": "isApprovedForAll",
      "outputs": [
        {
          "internalType": "bool",
          "name": "",
          "type": "bool"
        }
      ],
      "stateMutability": "view",
      "type": "function"
    },
    {
      "inputs": [
        {
          "internalType": "uint256",
          "name": "skillWalletId",
          "type": "uint256"
        }
      ],
      "name": "isSkillWalletActivated",
      "outputs": [
        {
          "internalType": "bool",
          "name": "status",
          "type": "bool"
        }
      ],
      "stateMutability": "view",
      "type": "function"
    },
    {
      "inputs": [
        {
          "internalType": "address",
          "name": "skillWalletOwner",
          "type": "address"
        }
      ],
      "name": "isSkillWalletRegistered",
      "outputs": [
        {
          "internalType": "bool",
          "name": "status",
          "type": "bool"
        }
      ],
      "stateMutability": "view",
      "type": "function"
    },
    {
      "inputs": [],
      "name": "name",
      "outputs": [
        {
          "internalType": "string",
          "name": "",
          "type": "string"
        }
      ],
      "stateMutability": "view",
      "type": "function"
    },
    {
      "inputs": [],
      "name": "owner",
      "outputs": [
        {
          "internalType": "address",
          "name": "",
          "type": "address"
        }
      ],
      "stateMutability": "view",
      "type": "function"
    },
    {
      "inputs": [
        {
          "internalType": "uint256",
          "name": "tokenId",
          "type": "uint256"
        }
      ],
      "name": "ownerOf",
      "outputs": [
        {
          "internalType": "address",
          "name": "",
          "type": "address"
        }
      ],
      "stateMutability": "view",
      "type": "function"
    },
    {
      "inputs": [],
      "name": "renounceOwnership",
      "outputs": [],
      "stateMutability": "nonpayable",
      "type": "function"
    },
    {
      "inputs": [
        {
          "internalType": "address",
          "name": "from",
          "type": "address"
        },
        {
          "internalType": "address",
          "name": "to",
          "type": "address"
        },
        {
          "internalType": "uint256",
          "name": "tokenId",
          "type": "uint256"
        }
      ],
      "name": "safeTransferFrom",
      "outputs": [],
      "stateMutability": "nonpayable",
      "type": "function"
    },
    {
      "inputs": [
        {
          "internalType": "address",
          "name": "from",
          "type": "address"
        },
        {
          "internalType": "address",
          "name": "to",
          "type": "address"
        },
        {
          "internalType": "uint256",
          "name": "tokenId",
          "type": "uint256"
        },
        {
          "internalType": "bytes",
          "name": "_data",
          "type": "bytes"
        }
      ],
      "name": "safeTransferFrom",
      "outputs": [],
      "stateMutability": "nonpayable",
      "type": "function"
    },
    {
      "inputs": [
        {
          "internalType": "address",
          "name": "operator",
          "type": "address"
        },
        {
          "internalType": "bool",
          "name": "approved",
          "type": "bool"
        }
      ],
      "name": "setApprovalForAll",
      "outputs": [],
      "stateMutability": "nonpayable",
      "type": "function"
    },
    {
      "inputs": [
        {
          "internalType": "bytes4",
          "name": "interfaceId",
          "type": "bytes4"
        }
      ],
      "name": "supportsInterface",
      "outputs": [
        {
          "internalType": "bool",
          "name": "",
          "type": "bool"
        }
      ],
      "stateMutability": "view",
      "type": "function"
    },
    {
      "inputs": [],
      "name": "symbol",
      "outputs": [
        {
          "internalType": "string",
          "name": "",
          "type": "string"
        }
      ],
      "stateMutability": "view",
      "type": "function"
    },
    {
      "inputs": [
        {
          "internalType": "uint256",
          "name": "index",
          "type": "uint256"
        }
      ],
      "name": "tokenByIndex",
      "outputs": [
        {
          "internalType": "uint256",
          "name": "",
          "type": "uint256"
        }
      ],
      "stateMutability": "view",
      "type": "function"
    },
    {
      "inputs": [
        {
          "internalType": "address",
          "name": "owner",
          "type": "address"
        },
        {
          "internalType": "uint256",
          "name": "index",
          "type": "uint256"
        }
      ],
      "name": "tokenOfOwnerByIndex",
      "outputs": [
        {
          "internalType": "uint256",
          "name": "",
          "type": "uint256"
        }
      ],
      "stateMutability": "view",
      "type": "function"
    },
    {
      "inputs": [
        {
          "internalType": "uint256",
          "name": "tokenId",
          "type": "uint256"
        }
      ],
      "name": "tokenURI",
      "outputs": [
        {
          "internalType": "string",
          "name": "",
          "type": "string"
        }
      ],
      "stateMutability": "view",
      "type": "function"
    },
    {
      "inputs": [],
      "name": "totalSupply",
      "outputs": [
        {
          "internalType": "uint256",
          "name": "",
          "type": "uint256"
        }
      ],
      "stateMutability": "view",
      "type": "function"
    },
    {
      "inputs": [
        {
          "internalType": "address",
          "name": "from",
          "type": "address"
        },
        {
          "internalType": "address",
          "name": "to",
          "type": "address"
        },
        {
          "internalType": "uint256",
          "name": "tokenId",
          "type": "uint256"
        }
      ],
      "name": "transferFrom",
      "outputs": [],
      "stateMutability": "nonpayable",
      "type": "function"
    },
    {
      "inputs": [
        {
          "internalType": "address",
          "name": "newOwner",
          "type": "address"
        }
      ],
      "name": "transferOwnership",
      "outputs": [],
      "stateMutability": "nonpayable",
      "type": "function"
    },
    {
      "inputs": [
        {
          "internalType": "uint256",
          "name": "skillWalletId",
          "type": "uint256"
        },
        {
          "components": [
            {
              "components": [
                {
                  "internalType": "uint64",
                  "name": "displayStringId",
                  "type": "uint64"
                },
                {
                  "internalType": "uint8",
                  "name": "level",
                  "type": "uint8"
                }
              ],
              "internalType": "struct Types.Skill",
              "name": "skill1",
              "type": "tuple"
            },
            {
              "components": [
                {
                  "internalType": "uint64",
                  "name": "displayStringId",
                  "type": "uint64"
                },
                {
                  "internalType": "uint8",
                  "name": "level",
                  "type": "uint8"
                }
              ],
              "internalType": "struct Types.Skill",
              "name": "skill2",
              "type": "tuple"
            },
            {
              "components": [
                {
                  "internalType": "uint64",
                  "name": "displayStringId",
                  "type": "uint64"
                },
                {
                  "internalType": "uint8",
                  "name": "level",
                  "type": "uint8"
                }
              ],
              "internalType": "struct Types.Skill",
              "name": "skill3",
              "type": "tuple"
            }
          ],
          "internalType": "struct Types.SkillSet",
          "name": "newSkillSet",
          "type": "tuple"
        }
      ],
      "name": "updateSkillSet",
      "outputs": [],
      "stateMutability": "nonpayable",
      "type": "function"
    }
  ],
  "bytecode": "0x60806040523480156200001157600080fd5b50604080518082018252600b81526a14dada5b1b15d85b1b195d60aa1b60208083019190915282518084019093526002835261535760f01b9083015290620000606301ffc9a760e01b62000125565b815162000075906006906020850190620001ae565b5080516200008b906007906020840190620001ae565b506200009e6380ac58cd60e01b62000125565b620000b0635b5e139f60e01b62000125565b620000c263780e9d6360e01b62000125565b5060009050620000d1620001aa565b600a80546001600160a01b0319166001600160a01b038316908117909155604051919250906000907f8be0079c531659141344cd1fd0a4f28419497f9722a3daafe3b4186f6b6457e0908290a3506200025a565b6001600160e01b0319808216141562000185576040805162461bcd60e51b815260206004820152601c60248201527f4552433136353a20696e76616c696420696e7465726661636520696400000000604482015290519081900360640190fd5b6001600160e01b0319166000908152602081905260409020805460ff19166001179055565b3390565b828054600181600116156101000203166002900490600052602060002090601f016020900481019282620001e6576000855562000231565b82601f106200020157805160ff191683800117855562000231565b8280016001018555821562000231579182015b828111156200023157825182559160200191906001019062000214565b506200023f92915062000243565b5090565b5b808211156200023f576000815560010162000244565b612b0a806200026a6000396000f3fe608060405234801561001057600080fd5b50600436106101e55760003560e01c80636c0360eb1161010f578063a22cb465116100a2578063c87b56dd11610071578063c87b56dd146103ea578063e985e9c5146103fd578063f2fde38b14610410578063f3a4e1c014610423576101e5565b8063a22cb465146103a9578063b50e77ff146103bc578063b88d4fde146103cf578063c71ae302146103e2576101e5565b80638da5cb5b116100de5780638da5cb5b146103735780638f4b3f591461037b578063937b53b61461038e57806395d89b41146103a1576101e5565b80636c0360eb1461033d57806370a0823114610345578063715018a614610358578063739c1cba14610360576101e5565b80632f745c59116101875780634f6ccce7116101565780634f6ccce7146102f1578063617fc19d146103045780636352211e1461031757806365cbb7aa1461032a576101e5565b80632f745c5914610298578063407ca1c7146102ab57806342842e0e146102cb57806342ca9629146102de576101e5565b8063095ea7b3116101c3578063095ea7b3146102485780630a73b69d1461025d57806318160ddd1461027057806323b872dd14610285576101e5565b806301ffc9a7146101ea57806306fdde0314610213578063081812fc14610228575b600080fd5b6101fd6101f8366004612477565b610443565b60405161020a9190612557565b60405180910390f35b61021b610466565b60405161020a9190612562565b61023b61023636600461249f565b6104fc565b60405161020a91906124f6565b61025b61025636600461244e565b61055e565b005b61025b61026b3660046123f0565b610634565b6102786107e3565b60405161020a91906128a5565b61025b610293366004612315565b6107f4565b6102786102a636600461244e565b61084b565b6102be6102b936600461249f565b610876565b60405161020a919061250a565b61025b6102d9366004612315565b610935565b6102786102ec3660046122c9565b610950565b6102786102ff36600461249f565b610996565b61025b61031236600461249f565b6109ac565b61023b61032536600461249f565b610aee565b61023b61033836600461249f565b610b16565b61021b610b90565b6102786103533660046122c9565b610bf1565b61025b610c59565b6101fd61036e3660046122c9565b610d17565b61023b610d51565b6101fd61038936600461249f565b610d60565b61025b61039c3660046124b7565b610dd4565b61021b610ed2565b61025b6103b73660046123b6565b610f33565b61025b6103ca36600461249f565b611038565b61025b6103dd366004612350565b6110e3565b610278611141565b61021b6103f836600461249f565b61114d565b6101fd61040b3660046122e3565b6113d0565b61025b61041e3660046122c9565b6113fe565b61043661043136600461249f565b611513565b60405161020a9190612866565b6001600160e01b0319811660009081526020819052604090205460ff165b919050565b60068054604080516020601f60026000196101006001881615020190951694909404938401819004810282018101909252828152606093909290918301828280156104f25780601f106104c7576101008083540402835291602001916104f2565b820191906000526020600020905b8154815290600101906020018083116104d557829003601f168201915b5050505050905090565b600061050782611601565b6105425760405162461bcd60e51b815260040180806020018281038252602c815260200180612a28602c913960400191505060405180910390fd5b506000908152600460205260409020546001600160a01b031690565b600061056982610aee565b9050806001600160a01b0316836001600160a01b031614156105bc5760405162461bcd60e51b8152600401808060200182810382526021815260200180612a836021913960400191505060405180910390fd5b806001600160a01b03166105ce61160e565b6001600160a01b031614806105ea57506105ea8161040b61160e565b6106255760405162461bcd60e51b815260040180806020018281038252603881526020018061297b6038913960400191505060405180910390fd5b61062f8383611612565b505050565b61063d83610bf1565b156106635760405162461bcd60e51b815260040161065a906125b5565b60405180910390fd5b600061066f6011611680565b905061067b8482611684565b6000818152600b602090815260408083208054336001600160a01b03199182168117909255600c84528285208054600181810183559187528587200180549092169092179055848452600d83528184208751805182549186015167ffffffffffffffff1992831667ffffffffffffffff9283161760ff60401b19908116600160401b60ff93841681029190911786558c89015180519787018054918b01519187169886169890981783169084168202179096558b870151805160029096018054918a0151919095169590931694909417909316921690920217905560108252909120835161076b92850190612077565b506001600160a01b0384166000908152600e602052604090208190556107916011611692565b80336001600160a01b0316856001600160a01b03167f66d78e575b2517d4e354b4b0512628805cdb33e81571b3deff51b5c796577486866040516107d59190612866565b60405180910390a450505050565b60006107ef600261169b565b905090565b6108056107ff61160e565b826116a6565b6108405760405162461bcd60e51b8152600401808060200182810382526031815260200180612aa46031913960400191505060405180910390fd5b61062f83838361174a565b6001600160a01b038216600090815260016020526040812061086d9083611762565b90505b92915050565b60606108826011611680565b82106108a05760405162461bcd60e51b815260040161065a906126df565b6000828152600c60205260409020546108cb5760405162461bcd60e51b815260040161065a90612809565b6000828152600c60209081526040918290208054835181840281018401909452808452909183018282801561092957602002820191906000526020600020905b81546001600160a01b0316815260019091019060200180831161090b575b50505050509050919050565b61062f838383604051806020016040528060008152506110e3565b600061095b82610bf1565b60011461097a5760405162461bcd60e51b815260040161065a90612691565b506001600160a01b03166000908152600e602052604090205490565b6000806109a460028461176e565b509392505050565b6109b461160e565b6001600160a01b03166109c5610d51565b6001600160a01b031614610a20576040805162461bcd60e51b815260206004820181905260248201527f4f776e61626c653a2063616c6c6572206973206e6f7420746865206f776e6572604482015290519081900360640190fd5b610a2a6011611680565b8110610a485760405162461bcd60e51b815260040161065a906126df565b6000818152600b60205260409020546001600160a01b0316610a7c5760405162461bcd60e51b815260040161065a90612621565b6000818152600f602052604090205460ff1615610aab5760405162461bcd60e51b815260040161065a90612774565b6000818152600f6020526040808220805460ff191660011790555182917f3b9fa7eba99fc1e57dd4fc92ee03c32e0766a7c33c9f6222a3e3d72788fe4ff691a250565b6000610870826040518060600160405280602981526020016129dd602991396002919061178a565b6000610b226011611680565b8210610b405760405162461bcd60e51b815260040161065a906126df565b6000828152600b60205260409020546001600160a01b0316610b745760405162461bcd60e51b815260040161065a90612621565b506000908152600b60205260409020546001600160a01b031690565b60098054604080516020601f60026000196101006001881615020190951694909404938401819004810282018101909252828152606093909290918301828280156104f25780601f106104c7576101008083540402835291602001916104f2565b60006001600160a01b038216610c385760405162461bcd60e51b815260040180806020018281038252602a8152602001806129b3602a913960400191505060405180910390fd5b6001600160a01b03821660009081526001602052604090206108709061169b565b610c6161160e565b6001600160a01b0316610c72610d51565b6001600160a01b031614610ccd576040805162461bcd60e51b815260206004820181905260248201527f4f776e61626c653a2063616c6c6572206973206e6f7420746865206f776e6572604482015290519081900360640190fd5b600a546040516000916001600160a01b0316907f8be0079c531659141344cd1fd0a4f28419497f9722a3daafe3b4186f6b6457e0908390a3600a80546001600160a01b0319169055565b60006001600160a01b038216610d3f5760405162461bcd60e51b815260040161065a90612727565b610d4882610bf1565b60011492915050565b600a546001600160a01b031690565b6000610d6c6011611680565b8210610d8a5760405162461bcd60e51b815260040161065a906126df565b6000828152600b60205260409020546001600160a01b0316610dbe5760405162461bcd60e51b815260040161065a90612621565b506000908152600f602052604090205460ff1690565b610dde6011611680565b8210610dfc5760405162461bcd60e51b815260040161065a906126df565b6000828152600d60209081526040918290208351805182549184015160ff908116600160401b90810260ff60401b1967ffffffffffffffff94851667ffffffffffffffff19968716178116919091178655868901518051600188018054928a01518616850291871692881692909217831617905587890151805160029097018054919098015190931690910294909216921691909117161790555182907f6abce99645fd09e69c8d2e751e864666123a5a52cb47f74f31a224f9a253ce0c90610ec6908490612866565b60405180910390a25050565b60078054604080516020601f60026000196101006001881615020190951694909404938401819004810282018101909252828152606093909290918301828280156104f25780601f106104c7576101008083540402835291602001916104f2565b610f3b61160e565b6001600160a01b0316826001600160a01b03161415610fa1576040805162461bcd60e51b815260206004820152601960248201527f4552433732313a20617070726f766520746f2063616c6c657200000000000000604482015290519081900360640190fd5b8060056000610fae61160e565b6001600160a01b03908116825260208083019390935260409182016000908120918716808252919093529120805460ff191692151592909217909155610ff261160e565b6001600160a01b03167f17307eab39ab6107e8899845ad3d59bd9653f200f220920489ca2b5937696c318360405180821515815260200191505060405180910390a35050565b6110426011611680565b81106110605760405162461bcd60e51b815260040161065a906126df565b6000818152600b602090815260408083208054336001600160a01b03199182168117909255600c845282852080546001810182559086529390942090920180549093168217909255905182917f40e6ddae3d2fcfa2a7f756d08e3eaff271dc6f378630bac80f5ff5b3da18975c916110d891906124f6565b60405180910390a250565b6110f46110ee61160e565b836116a6565b61112f5760405162461bcd60e51b8152600401808060200182810382526031815260200180612aa46031913960400191505060405180910390fd5b61113b848484846117a1565b50505050565b60006107ef6011611680565b606061115882611601565b6111935760405162461bcd60e51b815260040180806020018281038252602f815260200180612a54602f913960400191505060405180910390fd5b60008281526008602090815260409182902080548351601f60026000196101006001861615020190931692909204918201849004840281018401909452808452606093928301828280156112285780601f106111fd57610100808354040283529160200191611228565b820191906000526020600020905b81548152906001019060200180831161120b57829003601f168201915b505050505090506060611239610b90565b905080516000141561124d57509050610461565b81511561130e5780826040516020018083805190602001908083835b602083106112885780518252601f199092019160209182019101611269565b51815160209384036101000a600019018019909216911617905285519190930192850191508083835b602083106112d05780518252601f1990920191602091820191016112b1565b6001836020036101000a0380198251168184511680821785525050505050509050019250505060405160208183030381529060405292505050610461565b80611318856117f3565b6040516020018083805190602001908083835b6020831061134a5780518252601f19909201916020918201910161132b565b51815160209384036101000a600019018019909216911617905285519190930192850191508083835b602083106113925780518252601f199092019160209182019101611373565b6001836020036101000a0380198251168184511680821785525050505050509050019250505060405160208183030381529060405292505050919050565b6001600160a01b03918216600090815260056020908152604080832093909416825291909152205460ff1690565b61140661160e565b6001600160a01b0316611417610d51565b6001600160a01b031614611472576040805162461bcd60e51b815260206004820181905260248201527f4f776e61626c653a2063616c6c6572206973206e6f7420746865206f776e6572604482015290519081900360640190fd5b6001600160a01b0381166114b75760405162461bcd60e51b81526004018080602001828103825260268152602001806129036026913960400191505060405180910390fd5b600a546040516001600160a01b038084169216907f8be0079c531659141344cd1fd0a4f28419497f9722a3daafe3b4186f6b6457e090600090a3600a80546001600160a01b0319166001600160a01b0392909216919091179055565b61151b612103565b6115256011611680565b82106115435760405162461bcd60e51b815260040161065a906126df565b6000828152600b60205260409020546001600160a01b03166115775760405162461bcd60e51b815260040161065a90612621565b506000908152600d6020908152604091829020825160a081018452815467ffffffffffffffff8082166060840190815260ff600160401b938490048116608086015290845286518088018852600186015480841682528490048216818801528487015286518088018852600290950154918216855291900416928201929092529181019190915290565b60006108706002836118ce565b3390565b600081815260046020526040902080546001600160a01b0319166001600160a01b038416908117909155819061164782610aee565b6001600160a01b03167f8c5be1e5ebec7d5bd14f71427d1e84f3dd0314c0f7b2291e5b200ac8c7c3b92560405160405180910390a45050565b5490565b61168e82826118da565b5050565b80546001019055565b600061087082611680565b60006116b182611601565b6116ec5760405162461bcd60e51b815260040180806020018281038252602c81526020018061294f602c913960400191505060405180910390fd5b60006116f783610aee565b9050806001600160a01b0316846001600160a01b031614806117325750836001600160a01b0316611727846104fc565b6001600160a01b0316145b80611742575061174281856113d0565b949350505050565b60405162461bcd60e51b815260040161065a906127bf565b600061086d83836118f4565b600080808061177d8686611958565b9097909650945050505050565b60006117978484846119d3565b90505b9392505050565b6117ac84848461174a565b6117b884848484611a9d565b61113b5760405162461bcd60e51b81526004018080602001828103825260328152602001806128d16032913960400191505060405180910390fd5b60608161181857506040805180820190915260018152600360fc1b6020820152610461565b8160005b811561183057600101600a8204915061181c565b60608167ffffffffffffffff8111801561184957600080fd5b506040519080825280601f01601f191660200182016040528015611874576020820181803683370190505b50859350905060001982015b83156118c557600a840660300160f81b828280600190039350815181106118a357fe5b60200101906001600160f81b031916908160001a905350600a84049350611880565b50949350505050565b600061086d8383611c05565b61168e828260405180602001604052806000815250611c1d565b815460009082106119365760405162461bcd60e51b81526004018080602001828103825260228152602001806128af6022913960400191505060405180910390fd5b82600001828154811061194557fe5b9060005260206000200154905092915050565b81546000908190831061199c5760405162461bcd60e51b8152600401808060200182810382526022815260200180612a066022913960400191505060405180910390fd5b60008460000184815481106119ad57fe5b906000526020600020906002020190508060000154816001015492509250509250929050565b60008281526001840160205260408120548281611a6e5760405162461bcd60e51b81526004018080602001828103825283818151815260200191508051906020019080838360005b83811015611a33578181015183820152602001611a1b565b50505050905090810190601f168015611a605780820380516001836020036101000a031916815260200191505b509250505060405180910390fd5b50846000016001820381548110611a8157fe5b9060005260206000209060020201600101549150509392505050565b6000611ab1846001600160a01b0316611c6f565b611abd57506001611742565b6060611bcb630a85bd0160e11b611ad261160e565b88878760405160240180856001600160a01b03168152602001846001600160a01b0316815260200183815260200180602001828103825283818151815260200191508051906020019080838360005b83811015611b39578181015183820152602001611b21565b50505050905090810190601f168015611b665780820380516001836020036101000a031916815260200191505b5095505050505050604051602081830303815290604052906001600160e01b0319166020820180516001600160e01b0383818316178352505050506040518060600160405280603281526020016128d1603291396001600160a01b0388169190611c75565b90506000818060200190516020811015611be457600080fd5b50516001600160e01b031916630a85bd0160e11b1492505050949350505050565b60009081526001919091016020526040902054151590565b611c278383611c84565b611c346000848484611a9d565b61062f5760405162461bcd60e51b81526004018080602001828103825260328152602001806128d16032913960400191505060405180910390fd5b3b151590565b60606117978484600085611db2565b6001600160a01b038216611cdf576040805162461bcd60e51b815260206004820181905260248201527f4552433732313a206d696e7420746f20746865207a65726f2061646472657373604482015290519081900360640190fd5b611ce881611601565b15611d3a576040805162461bcd60e51b815260206004820152601c60248201527f4552433732313a20746f6b656e20616c7265616479206d696e74656400000000604482015290519081900360640190fd5b611d466000838361062f565b6001600160a01b0382166000908152600160205260409020611d689082611f0e565b50611d7560028284611f1a565b5060405181906001600160a01b038416906000907fddf252ad1be2c89b69c2b068fc378daa952ba7f163c4a11628f55a4df523b3ef908290a45050565b606082471015611df35760405162461bcd60e51b81526004018080602001828103825260268152602001806129296026913960400191505060405180910390fd5b611dfc85611c6f565b611e4d576040805162461bcd60e51b815260206004820152601d60248201527f416464726573733a2063616c6c20746f206e6f6e2d636f6e7472616374000000604482015290519081900360640190fd5b60006060866001600160a01b031685876040518082805190602001908083835b60208310611e8c5780518252601f199092019160209182019101611e6d565b6001836020036101000a03801982511681845116808217855250505050505090500191505060006040518083038185875af1925050503d8060008114611eee576040519150601f19603f3d011682016040523d82523d6000602084013e611ef3565b606091505b5091509150611f03828286611f30565b979650505050505050565b600061086d8383611f96565b600061179784846001600160a01b038516611fe0565b60608315611f3f57508161179a565b825115611f4f5782518084602001fd5b60405162461bcd60e51b8152602060048201818152845160248401528451859391928392604401919085019080838360008315611a33578181015183820152602001611a1b565b6000611fa28383611c05565b611fd857508154600181810184556000848152602080822090930184905584548482528286019093526040902091909155610870565b506000610870565b60008281526001840160205260408120548061204557505060408051808201825283815260208082018481528654600181810189556000898152848120955160029093029095019182559151908201558654868452818801909252929091205561179a565b8285600001600183038154811061205857fe5b906000526020600020906002020160010181905550600091505061179a565b828054600181600116156101000203166002900490600052602060002090601f0160209004810192826120ad57600085556120f3565b82601f106120c657805160ff19168380011785556120f3565b828001600101855582156120f3579182015b828111156120f35782518255916020019190600101906120d8565b506120ff929150612135565b5090565b604051806060016040528061211661214a565b815260200161212361214a565b815260200161213061214a565b905290565b5b808211156120ff5760008155600101612136565b604080518082019091526000808252602082015290565b80356001600160a01b038116811461046157600080fd5b600082601f830112612188578081fd5b813567ffffffffffffffff8082111561219d57fe5b604051601f8301601f1916810160200182811182821017156121bb57fe5b6040528281529250828483016020018610156121d657600080fd5b8260208601602083013760006020848301015250505092915050565b600060c08284031215612203578081fd5b6040516060810181811067ffffffffffffffff8211171561222057fe5b604052905080612230848461225d565b815261223f846040850161225d565b6020820152612251846080850161225d565b60408201525092915050565b60006040828403121561226e578081fd5b6040516040810167ffffffffffffffff828210818311171561228c57fe5b816040528293508435915080821682146122a557600080fd5b508152602083013560ff811681146122bc57600080fd5b6020919091015292915050565b6000602082840312156122da578081fd5b61086d82612161565b600080604083850312156122f5578081fd5b6122fe83612161565b915061230c60208401612161565b90509250929050565b600080600060608486031215612329578081fd5b61233284612161565b925061234060208501612161565b9150604084013590509250925092565b60008060008060808587031215612365578081fd5b61236e85612161565b935061237c60208601612161565b925060408501359150606085013567ffffffffffffffff81111561239e578182fd5b6123aa87828801612178565b91505092959194509250565b600080604083850312156123c8578182fd5b6123d183612161565b9150602083013580151581146123e5578182fd5b809150509250929050565b60008060006101008486031215612405578283fd5b61240e84612161565b925061241d85602086016121f2565b915060e084013567ffffffffffffffff811115612438578182fd5b61244486828701612178565b9150509250925092565b60008060408385031215612460578182fd5b61246983612161565b946020939093013593505050565b600060208284031215612488578081fd5b81356001600160e01b03198116811461179a578182fd5b6000602082840312156124b0578081fd5b5035919050565b60008060e083850312156124c9578182fd5b8235915061230c84602085016121f2565b805167ffffffffffffffff16825260209081015160ff16910152565b6001600160a01b0391909116815260200190565b6020808252825182820181905260009190848201906040850190845b8181101561254b5783516001600160a01b031683529284019291840191600101612526565b50909695505050505050565b901515815260200190565b6000602080835283518082850152825b8181101561258e57858101830151858201604001528201612572565b8181111561259f5783604083870101525b50601f01601f1916929092016040019392505050565b60208082526046908201527f536b696c6c57616c6c65743a20546865726520697320536b696c6c57616c6c6560408201527f7420616c7265616479207265676973746572656420666f722074686973206164606082015265323932b9b99760d11b608082015260a00190565b6020808252604a908201527f536b696c6c57616c6c65743a2054686520536b696c6c57616c6c65742069732060408201527f6e6f7420696e20616e7920636f6d6d756e6974792c20696e76616c696420536b60608201526934b6362bb0b63632ba1760b11b608082015260a00190565b6020808252602e908201527f536b696c6c57616c6c65743a2054686520536b696c6c57616c6c6574206f776e60408201526d32b91034b99034b73b30b634b21760911b606082015260800190565b60208082526028908201527f536b696c6c57616c6c65743a20736b696c6c57616c6c65744964206f7574206f60408201526733103930b733b29760c11b606082015260800190565b6020808252602d908201527f536b696c6c57616c6c65743a20496e76616c696420736b696c6c57616c6c657460408201526c4f776e6572206164647265737360981b606082015260800190565b6020808252602b908201527f536b696c6c57616c6c65743a20536b696c6c2077616c6c657420616c7265616460408201526a1e481858dd1a5d985d195960aa1b606082015260800190565b6020808252602a908201527f536b696c6c57616c6c65743a20536b696c6c57616c6c6574207472616e7366656040820152691c88191a5cd8589b195960b21b606082015260800190565b6020808252603a908201527f536b696c6c57616c6c65743a2054686520536b696c6c57616c6c65742069732060408201527f6e6f742070617274206f6620616e7920636f6d6d756e6974792e000000000000606082015260800190565b600060c0820190506128798284516124da565b602083015161288b60408401826124da565b50604083015161289e60808401826124da565b5092915050565b9081526020019056fe456e756d657261626c655365743a20696e646578206f7574206f6620626f756e64734552433732313a207472616e7366657220746f206e6f6e20455243373231526563656976657220696d706c656d656e7465724f776e61626c653a206e6577206f776e657220697320746865207a65726f2061646472657373416464726573733a20696e73756666696369656e742062616c616e636520666f722063616c6c4552433732313a206f70657261746f7220717565727920666f72206e6f6e6578697374656e7420746f6b656e4552433732313a20617070726f76652063616c6c6572206973206e6f74206f776e6572206e6f7220617070726f76656420666f7220616c6c4552433732313a2062616c616e636520717565727920666f7220746865207a65726f20616464726573734552433732313a206f776e657220717565727920666f72206e6f6e6578697374656e7420746f6b656e456e756d657261626c654d61703a20696e646578206f7574206f6620626f756e64734552433732313a20617070726f76656420717565727920666f72206e6f6e6578697374656e7420746f6b656e4552433732314d657461646174613a2055524920717565727920666f72206e6f6e6578697374656e7420746f6b656e4552433732313a20617070726f76616c20746f2063757272656e74206f776e65724552433732313a207472616e736665722063616c6c6572206973206e6f74206f776e6572206e6f7220617070726f766564a2646970667358221220c31fd92afcb9b21308b29877ce278e005a29c0992d68c78ae9d4c9db5fa545a864736f6c63430007040033",
  "linkReferences": {},
  "deployedLinkReferences": {}
}