{
  "_format": "hh-sol-artifact-1",
  "contractName": "Project",
  "sourceName": "contracts/Project.sol",
  "abi": [
    {
      "inputs": [
        {
          "internalType": "string",
          "name": "_name",
          "type": "string"
        },
        {
          "internalType": "string",
          "name": "_symbol",
          "type": "string"
        }
      ],
      "stateMutability": "nonpayable",
      "type": "constructor"
    },
    {
      "anonymous": false,
      "inputs": [
        {
          "indexed": true,
          "internalType": "address",
          "name": "owner",
          "type": "address"
        },
        {
          "indexed": true,
          "internalType": "address",
          "name": "approved",
          "type": "address"
        },
        {
          "indexed": true,
          "internalType": "uint256",
          "name": "tokenId",
          "type": "uint256"
        }
      ],
      "name": "Approval",
      "type": "event"
    },
    {
      "anonymous": false,
      "inputs": [
        {
          "indexed": true,
          "internalType": "address",
          "name": "owner",
          "type": "address"
        },
        {
          "indexed": true,
          "internalType": "address",
          "name": "operator",
          "type": "address"
        },
        {
          "indexed": false,
          "internalType": "bool",
          "name": "approved",
          "type": "bool"
        }
      ],
      "name": "ApprovalForAll",
      "type": "event"
    },
    {
      "anonymous": false,
      "inputs": [
        {
          "indexed": false,
          "internalType": "uint256",
          "name": "projectId",
          "type": "uint256"
        },
        {
          "indexed": false,
          "internalType": "uint256",
          "name": "template",
          "type": "uint256"
        },
        {
          "indexed": false,
          "internalType": "address",
          "name": "communityAddress",
          "type": "address"
        }
      ],
      "name": "ProjectCreated",
      "type": "event"
    },
    {
      "anonymous": false,
      "inputs": [
        {
          "indexed": true,
          "internalType": "address",
          "name": "from",
          "type": "address"
        },
        {
          "indexed": true,
          "internalType": "address",
          "name": "to",
          "type": "address"
        },
        {
          "indexed": true,
          "internalType": "uint256",
          "name": "tokenId",
          "type": "uint256"
        }
      ],
      "name": "Transfer",
      "type": "event"
    },
    {
      "inputs": [
        {
          "internalType": "address",
          "name": "to",
          "type": "address"
        },
        {
          "internalType": "uint256",
          "name": "tokenId",
          "type": "uint256"
        }
      ],
      "name": "approve",
      "outputs": [],
      "stateMutability": "nonpayable",
      "type": "function"
    },
    {
      "inputs": [
        {
          "internalType": "address",
          "name": "owner",
          "type": "address"
        }
      ],
      "name": "balanceOf",
      "outputs": [
        {
          "internalType": "uint256",
          "name": "",
          "type": "uint256"
        }
      ],
      "stateMutability": "view",
      "type": "function"
    },
    {
      "inputs": [],
      "name": "baseURI",
      "outputs": [
        {
          "internalType": "string",
          "name": "",
          "type": "string"
        }
      ],
      "stateMutability": "view",
      "type": "function"
    },
    {
      "inputs": [
        {
          "internalType": "string",
          "name": "_props",
          "type": "string"
        },
        {
          "internalType": "uint256",
          "name": "template",
          "type": "uint256"
        }
      ],
      "name": "createProject",
      "outputs": [],
      "stateMutability": "nonpayable",
      "type": "function"
    },
    {
      "inputs": [
        {
          "internalType": "uint256",
          "name": "tokenId",
          "type": "uint256"
        }
      ],
      "name": "getApproved",
      "outputs": [
        {
          "internalType": "address",
          "name": "",
          "type": "address"
        }
      ],
      "stateMutability": "view",
      "type": "function"
    },
    {
      "inputs": [
        {
          "internalType": "address",
          "name": "owner",
          "type": "address"
        },
        {
          "internalType": "address",
          "name": "operator",
          "type": "address"
        }
      ],
      "name": "isApprovedForAll",
      "outputs": [
        {
          "internalType": "bool",
          "name": "",
          "type": "bool"
        }
      ],
      "stateMutability": "view",
      "type": "function"
    },
    {
      "inputs": [],
      "name": "name",
      "outputs": [
        {
          "internalType": "string",
          "name": "",
          "type": "string"
        }
      ],
      "stateMutability": "view",
      "type": "function"
    },
    {
      "inputs": [
        {
          "internalType": "uint256",
          "name": "tokenId",
          "type": "uint256"
        }
      ],
      "name": "ownerOf",
      "outputs": [
        {
          "internalType": "address",
          "name": "",
          "type": "address"
        }
      ],
      "stateMutability": "view",
      "type": "function"
    },
    {
      "inputs": [
        {
          "internalType": "address",
          "name": "from",
          "type": "address"
        },
        {
          "internalType": "address",
          "name": "to",
          "type": "address"
        },
        {
          "internalType": "uint256",
          "name": "tokenId",
          "type": "uint256"
        }
      ],
      "name": "safeTransferFrom",
      "outputs": [],
      "stateMutability": "nonpayable",
      "type": "function"
    },
    {
      "inputs": [
        {
          "internalType": "address",
          "name": "from",
          "type": "address"
        },
        {
          "internalType": "address",
          "name": "to",
          "type": "address"
        },
        {
          "internalType": "uint256",
          "name": "tokenId",
          "type": "uint256"
        },
        {
          "internalType": "bytes",
          "name": "_data",
          "type": "bytes"
        }
      ],
      "name": "safeTransferFrom",
      "outputs": [],
      "stateMutability": "nonpayable",
      "type": "function"
    },
    {
      "inputs": [
        {
          "internalType": "address",
          "name": "operator",
          "type": "address"
        },
        {
          "internalType": "bool",
          "name": "approved",
          "type": "bool"
        }
      ],
      "name": "setApprovalForAll",
      "outputs": [],
      "stateMutability": "nonpayable",
      "type": "function"
    },
    {
      "inputs": [
        {
          "internalType": "bytes4",
          "name": "interfaceId",
          "type": "bytes4"
        }
      ],
      "name": "supportsInterface",
      "outputs": [
        {
          "internalType": "bool",
          "name": "",
          "type": "bool"
        }
      ],
      "stateMutability": "view",
      "type": "function"
    },
    {
      "inputs": [],
      "name": "symbol",
      "outputs": [
        {
          "internalType": "string",
          "name": "",
          "type": "string"
        }
      ],
      "stateMutability": "view",
      "type": "function"
    },
    {
      "inputs": [
        {
          "internalType": "uint256",
          "name": "index",
          "type": "uint256"
        }
      ],
      "name": "tokenByIndex",
      "outputs": [
        {
          "internalType": "uint256",
          "name": "",
          "type": "uint256"
        }
      ],
      "stateMutability": "view",
      "type": "function"
    },
    {
      "inputs": [
        {
          "internalType": "address",
          "name": "owner",
          "type": "address"
        },
        {
          "internalType": "uint256",
          "name": "index",
          "type": "uint256"
        }
      ],
      "name": "tokenOfOwnerByIndex",
      "outputs": [
        {
          "internalType": "uint256",
          "name": "",
          "type": "uint256"
        }
      ],
      "stateMutability": "view",
      "type": "function"
    },
    {
      "inputs": [
        {
          "internalType": "uint256",
          "name": "tokenId",
          "type": "uint256"
        }
      ],
      "name": "tokenURI",
      "outputs": [
        {
          "internalType": "string",
          "name": "",
          "type": "string"
        }
      ],
      "stateMutability": "view",
      "type": "function"
    },
    {
      "inputs": [],
      "name": "totalSupply",
      "outputs": [
        {
          "internalType": "uint256",
          "name": "",
          "type": "uint256"
        }
      ],
      "stateMutability": "view",
      "type": "function"
    },
    {
      "inputs": [
        {
          "internalType": "address",
          "name": "from",
          "type": "address"
        },
        {
          "internalType": "address",
          "name": "to",
          "type": "address"
        },
        {
          "internalType": "uint256",
          "name": "tokenId",
          "type": "uint256"
        }
      ],
      "name": "transferFrom",
      "outputs": [],
      "stateMutability": "nonpayable",
      "type": "function"
    }
  ],
  "bytecode": "0x60806040523480156200001157600080fd5b506040516200207738038062002077833981016040819052620000349162000288565b8181620000486301ffc9a760e01b620000b4565b81516200005d90600690602085019062000139565b5080516200007390600790602084019062000139565b50620000866380ac58cd60e01b620000b4565b62000098635b5e139f60e01b620000b4565b620000aa63780e9d6360e01b620000b4565b50505050620002ef565b6001600160e01b0319808216141562000114576040805162461bcd60e51b815260206004820152601c60248201527f4552433136353a20696e76616c696420696e7465726661636520696400000000604482015290519081900360640190fd5b6001600160e01b0319166000908152602081905260409020805460ff19166001179055565b828054600181600116156101000203166002900490600052602060002090601f016020900481019282620001715760008555620001bc565b82601f106200018c57805160ff1916838001178555620001bc565b82800160010185558215620001bc579182015b82811115620001bc5782518255916020019190600101906200019f565b50620001ca929150620001ce565b5090565b5b80821115620001ca5760008155600101620001cf565b600082601f830112620001f6578081fd5b81516001600160401b03808211156200020b57fe5b6040516020601f8401601f19168201810183811183821017156200022b57fe5b806040525081945083825286818588010111156200024857600080fd5b600092505b838310156200026c57858301810151828401820152918201916200024d565b838311156200027e5760008185840101525b5050505092915050565b600080604083850312156200029b578182fd5b82516001600160401b0380821115620002b2578384fd5b620002c086838701620001e5565b93506020850151915080821115620002d6578283fd5b50620002e585828601620001e5565b9150509250929050565b611d7880620002ff6000396000f3fe608060405234801561001057600080fd5b50600436106101165760003560e01c80636352211e116100a257806395d89b411161007157806395d89b4114610230578063a22cb46514610238578063b88d4fde1461024b578063c87b56dd1461025e578063e985e9c51461027157610116565b80636352211e146101ef5780636c0360eb1461020257806370a082311461020a57806391754a5d1461021d57610116565b806318160ddd116100e957806318160ddd1461018e57806323b872dd146101a35780632f745c59146101b657806342842e0e146101c95780634f6ccce7146101dc57610116565b806301ffc9a71461011b57806306fdde0314610144578063081812fc14610159578063095ea7b314610179575b600080fd5b61012e6101293660046119d2565b610284565b60405161013b9190611a69565b60405180910390f35b61014c6102a7565b60405161013b9190611a74565b61016c610167366004611a3d565b61033d565b60405161013b9190611a55565b61018c6101873660046119a9565b61039f565b005b610196610475565b60405161013b9190611ac7565b61018c6101b13660046118ce565b610486565b6101966101c43660046119a9565b6104dd565b61018c6101d73660046118ce565b610508565b6101966101ea366004611a3d565b610523565b61016c6101fd366004611a3d565b610539565b61014c610561565b610196610218366004611882565b6105c2565b61018c61022b3660046119fa565b61062a565b61014c6106c4565b61018c61024636600461196f565b610725565b61018c610259366004611909565b61082a565b61014c61026c366004611a3d565b610888565b61012e61027f36600461189c565b610b0b565b6001600160e01b0319811660009081526020819052604090205460ff165b919050565b60068054604080516020601f60026000196101006001881615020190951694909404938401819004810282018101909252828152606093909290918301828280156103335780601f1061030857610100808354040283529160200191610333565b820191906000526020600020905b81548152906001019060200180831161031657829003601f168201915b5050505050905090565b600061034882610b39565b6103835760405162461bcd60e51b815260040180806020018281038252602c815260200180611c41602c913960400191505060405180910390fd5b506000908152600460205260409020546001600160a01b031690565b60006103aa82610539565b9050806001600160a01b0316836001600160a01b031614156103fd5760405162461bcd60e51b8152600401808060200182810382526021815260200180611cf16021913960400191505060405180910390fd5b806001600160a01b031661040f610b46565b6001600160a01b0316148061042b575061042b8161027f610b46565b6104665760405162461bcd60e51b8152600401808060200182810382526038815260200180611b946038913960400191505060405180910390fd5b6104708383610b4a565b505050565b60006104816002610bb8565b905090565b610497610491610b46565b82610bc3565b6104d25760405162461bcd60e51b8152600401808060200182810382526031815260200180611d126031913960400191505060405180910390fd5b610470838383610c67565b6001600160a01b03821660009081526001602052604081206104ff9083610db3565b90505b92915050565b6104708383836040518060200160405280600081525061082a565b600080610531600284610dbf565b509392505050565b600061050282604051806060016040528060298152602001611bf66029913960029190610ddb565b60098054604080516020601f60026000196101006001881615020190951694909404938401819004810282018101909252828152606093909290918301828280156103335780601f1061030857610100808354040283529160200191610333565b60006001600160a01b0382166106095760405162461bcd60e51b815260040180806020018281038252602a815260200180611bcc602a913960400191505060405180910390fd5b6001600160a01b038216600090815260016020526040902061050290610bb8565b6000610636600a610df2565b90506106423382610df6565b61064c8184610f24565b336000818152600b60209081526040808320859055848352600c825280832080546001600160a01b03191685179055600d90915290819020849055517f2e16fe6185221195ff919455425d57cc20788b7457ce4ab0a9b39ffbbe4e25b2916106b79184918691611ad0565b60405180910390a1505050565b60078054604080516020601f60026000196101006001881615020190951694909404938401819004810282018101909252828152606093909290918301828280156103335780601f1061030857610100808354040283529160200191610333565b61072d610b46565b6001600160a01b0316826001600160a01b03161415610793576040805162461bcd60e51b815260206004820152601960248201527f4552433732313a20617070726f766520746f2063616c6c657200000000000000604482015290519081900360640190fd5b80600560006107a0610b46565b6001600160a01b03908116825260208083019390935260409182016000908120918716808252919093529120805460ff1916921515929092179091556107e4610b46565b6001600160a01b03167f17307eab39ab6107e8899845ad3d59bd9653f200f220920489ca2b5937696c318360405180821515815260200191505060405180910390a35050565b61083b610835610b46565b83610bc3565b6108765760405162461bcd60e51b8152600401808060200182810382526031815260200180611d126031913960400191505060405180910390fd5b61088284848484610f87565b50505050565b606061089382610b39565b6108ce5760405162461bcd60e51b815260040180806020018281038252602f815260200180611cc2602f913960400191505060405180910390fd5b60008281526008602090815260409182902080548351601f60026000196101006001861615020190931692909204918201849004840281018401909452808452606093928301828280156109635780601f1061093857610100808354040283529160200191610963565b820191906000526020600020905b81548152906001019060200180831161094657829003601f168201915b505050505090506060610974610561565b9050805160001415610988575090506102a2565b815115610a495780826040516020018083805190602001908083835b602083106109c35780518252601f1990920191602091820191016109a4565b51815160209384036101000a600019018019909216911617905285519190930192850191508083835b60208310610a0b5780518252601f1990920191602091820191016109ec565b6001836020036101000a03801982511681845116808217855250505050505090500192505050604051602081830303815290604052925050506102a2565b80610a5385610fd9565b6040516020018083805190602001908083835b60208310610a855780518252601f199092019160209182019101610a66565b51815160209384036101000a600019018019909216911617905285519190930192850191508083835b60208310610acd5780518252601f199092019160209182019101610aae565b6001836020036101000a0380198251168184511680821785525050505050509050019250505060405160208183030381529060405292505050919050565b6001600160a01b03918216600090815260056020908152604080832093909416825291909152205460ff1690565b60006105026002836110b4565b3390565b600081815260046020526040902080546001600160a01b0319166001600160a01b0384169081179091558190610b7f82610539565b6001600160a01b03167f8c5be1e5ebec7d5bd14f71427d1e84f3dd0314c0f7b2291e5b200ac8c7c3b92560405160405180910390a45050565b600061050282610df2565b6000610bce82610b39565b610c095760405162461bcd60e51b815260040180806020018281038252602c815260200180611b68602c913960400191505060405180910390fd5b6000610c1483610539565b9050806001600160a01b0316846001600160a01b03161480610c4f5750836001600160a01b0316610c448461033d565b6001600160a01b0316145b80610c5f5750610c5f8185610b0b565b949350505050565b826001600160a01b0316610c7a82610539565b6001600160a01b031614610cbf5760405162461bcd60e51b8152600401808060200182810382526029815260200180611c996029913960400191505060405180910390fd5b6001600160a01b038216610d045760405162461bcd60e51b8152600401808060200182810382526024815260200180611b446024913960400191505060405180910390fd5b610d0f838383610470565b610d1a600082610b4a565b6001600160a01b0383166000908152600160205260409020610d3c90826110c0565b506001600160a01b0382166000908152600160205260409020610d5f90826110cc565b50610d6c600282846110d8565b5080826001600160a01b0316846001600160a01b03167fddf252ad1be2c89b69c2b068fc378daa952ba7f163c4a11628f55a4df523b3ef60405160405180910390a4505050565b60006104ff83836110ee565b6000808080610dce8686611152565b9097909650945050505050565b6000610de88484846111cd565b90505b9392505050565b5490565b6001600160a01b038216610e51576040805162461bcd60e51b815260206004820181905260248201527f4552433732313a206d696e7420746f20746865207a65726f2061646472657373604482015290519081900360640190fd5b610e5a81610b39565b15610eac576040805162461bcd60e51b815260206004820152601c60248201527f4552433732313a20746f6b656e20616c7265616479206d696e74656400000000604482015290519081900360640190fd5b610eb860008383610470565b6001600160a01b0382166000908152600160205260409020610eda90826110cc565b50610ee7600282846110d8565b5060405181906001600160a01b038416906000907fddf252ad1be2c89b69c2b068fc378daa952ba7f163c4a11628f55a4df523b3ef908290a45050565b610f2d82610b39565b610f685760405162461bcd60e51b815260040180806020018281038252602c815260200180611c6d602c913960400191505060405180910390fd5b6000828152600860209081526040909120825161047092840190611750565b610f92848484610c67565b610f9e84848484611297565b6108825760405162461bcd60e51b8152600401808060200182810382526032815260200180611b126032913960400191505060405180910390fd5b606081610ffe57506040805180820190915260018152600360fc1b60208201526102a2565b8160005b811561101657600101600a82049150611002565b60608167ffffffffffffffff8111801561102f57600080fd5b506040519080825280601f01601f19166020018201604052801561105a576020820181803683370190505b50859350905060001982015b83156110ab57600a840660300160f81b8282806001900393508151811061108957fe5b60200101906001600160f81b031916908160001a905350600a84049350611066565b50949350505050565b60006104ff83836113ff565b60006104ff8383611417565b60006104ff83836114dd565b6000610de884846001600160a01b038516611527565b815460009082106111305760405162461bcd60e51b8152600401808060200182810382526022815260200180611af06022913960400191505060405180910390fd5b82600001828154811061113f57fe5b9060005260206000200154905092915050565b8154600090819083106111965760405162461bcd60e51b8152600401808060200182810382526022815260200180611c1f6022913960400191505060405180910390fd5b60008460000184815481106111a757fe5b906000526020600020906002020190508060000154816001015492509250509250929050565b600082815260018401602052604081205482816112685760405162461bcd60e51b81526004018080602001828103825283818151815260200191508051906020019080838360005b8381101561122d578181015183820152602001611215565b50505050905090810190601f16801561125a5780820380516001836020036101000a031916815260200191505b509250505060405180910390fd5b5084600001600182038154811061127b57fe5b9060005260206000209060020201600101549150509392505050565b60006112ab846001600160a01b03166115be565b6112b757506001610c5f565b60606113c5630a85bd0160e11b6112cc610b46565b88878760405160240180856001600160a01b03168152602001846001600160a01b0316815260200183815260200180602001828103825283818151815260200191508051906020019080838360005b8381101561133357818101518382015260200161131b565b50505050905090810190601f1680156113605780820380516001836020036101000a031916815260200191505b5095505050505050604051602081830303815290604052906001600160e01b0319166020820180516001600160e01b038381831617835250505050604051806060016040528060328152602001611b12603291396001600160a01b03881691906115c4565b905060008180602001905160208110156113de57600080fd5b50516001600160e01b031916630a85bd0160e11b1492505050949350505050565b60009081526001919091016020526040902054151590565b600081815260018301602052604081205480156114d3578354600019808301919081019060009087908390811061144a57fe5b906000526020600020015490508087600001848154811061146757fe5b60009182526020808320909101929092558281526001898101909252604090209084019055865487908061149757fe5b60019003818190600052602060002001600090559055866001016000878152602001908152602001600020600090556001945050505050610502565b6000915050610502565b60006114e983836113ff565b61151f57508154600181810184556000848152602080822090930184905584548482528286019093526040902091909155610502565b506000610502565b60008281526001840160205260408120548061158c575050604080518082018252838152602080820184815286546001818101895560008981528481209551600290930290950191825591519082015586548684528188019092529290912055610deb565b8285600001600183038154811061159f57fe5b9060005260206000209060020201600101819055506000915050610deb565b3b151590565b6060610de88484600085856115d8856115be565b611629576040805162461bcd60e51b815260206004820152601d60248201527f416464726573733a2063616c6c20746f206e6f6e2d636f6e7472616374000000604482015290519081900360640190fd5b60006060866001600160a01b031685876040518082805190602001908083835b602083106116685780518252601f199092019160209182019101611649565b6001836020036101000a03801982511681845116808217855250505050505090500191505060006040518083038185875af1925050503d80600081146116ca576040519150601f19603f3d011682016040523d82523d6000602084013e6116cf565b606091505b50915091506116df8282866116ea565b979650505050505050565b606083156116f9575081610deb565b8251156117095782518084602001fd5b60405162461bcd60e51b815260206004820181815284516024840152845185939192839260440191908501908083836000831561122d578181015183820152602001611215565b828054600181600116156101000203166002900490600052602060002090601f01602090048101928261178657600085556117cc565b82601f1061179f57805160ff19168380011785556117cc565b828001600101855582156117cc579182015b828111156117cc5782518255916020019190600101906117b1565b506117d89291506117dc565b5090565b5b808211156117d857600081556001016117dd565b80356001600160a01b03811681146102a257600080fd5b600082601f830112611818578081fd5b813567ffffffffffffffff8082111561182d57fe5b604051601f8301601f19168101602001828111828210171561184b57fe5b60405282815292508284830160200186101561186657600080fd5b8260208601602083013760006020848301015250505092915050565b600060208284031215611893578081fd5b6104ff826117f1565b600080604083850312156118ae578081fd5b6118b7836117f1565b91506118c5602084016117f1565b90509250929050565b6000806000606084860312156118e2578081fd5b6118eb846117f1565b92506118f9602085016117f1565b9150604084013590509250925092565b6000806000806080858703121561191e578081fd5b611927856117f1565b9350611935602086016117f1565b925060408501359150606085013567ffffffffffffffff811115611957578182fd5b61196387828801611808565b91505092959194509250565b60008060408385031215611981578182fd5b61198a836117f1565b91506020830135801515811461199e578182fd5b809150509250929050565b600080604083850312156119bb578182fd5b6119c4836117f1565b946020939093013593505050565b6000602082840312156119e3578081fd5b81356001600160e01b031981168114610deb578182fd5b60008060408385031215611a0c578182fd5b823567ffffffffffffffff811115611a22578283fd5b611a2e85828601611808565b95602094909401359450505050565b600060208284031215611a4e578081fd5b5035919050565b6001600160a01b0391909116815260200190565b901515815260200190565b6000602080835283518082850152825b81811015611aa057858101830151858201604001528201611a84565b81811115611ab15783604083870101525b50601f01601f1916929092016040019392505050565b90815260200190565b92835260208301919091526001600160a01b031660408201526060019056fe456e756d657261626c655365743a20696e646578206f7574206f6620626f756e64734552433732313a207472616e7366657220746f206e6f6e20455243373231526563656976657220696d706c656d656e7465724552433732313a207472616e7366657220746f20746865207a65726f20616464726573734552433732313a206f70657261746f7220717565727920666f72206e6f6e6578697374656e7420746f6b656e4552433732313a20617070726f76652063616c6c6572206973206e6f74206f776e6572206e6f7220617070726f76656420666f7220616c6c4552433732313a2062616c616e636520717565727920666f7220746865207a65726f20616464726573734552433732313a206f776e657220717565727920666f72206e6f6e6578697374656e7420746f6b656e456e756d657261626c654d61703a20696e646578206f7574206f6620626f756e64734552433732313a20617070726f76656420717565727920666f72206e6f6e6578697374656e7420746f6b656e4552433732314d657461646174613a2055524920736574206f66206e6f6e6578697374656e7420746f6b656e4552433732313a207472616e73666572206f6620746f6b656e2074686174206973206e6f74206f776e4552433732314d657461646174613a2055524920717565727920666f72206e6f6e6578697374656e7420746f6b656e4552433732313a20617070726f76616c20746f2063757272656e74206f776e65724552433732313a207472616e736665722063616c6c6572206973206e6f74206f776e6572206e6f7220617070726f766564a2646970667358221220561ff246470d48ed153cceaa31392a5fd2ab7208d6a88b11f0fe0ed6868fd46164736f6c63430007040033",
  "linkReferences": {},
  "deployedLinkReferences": {}
}