{
  "_format": "hh-sol-artifact-1",
  "contractName": "Community",
  "sourceName": "contracts/Community.sol",
  "abi": [
    {
      "inputs": [
        {
          "internalType": "string",
          "name": "_url",
          "type": "string"
        },
        {
          "internalType": "address",
          "name": "skillWalletAddress",
          "type": "address"
        }
      ],
      "stateMutability": "nonpayable",
      "type": "constructor"
    },
    {
      "anonymous": false,
      "inputs": [
        {
          "indexed": true,
          "internalType": "address",
          "name": "_member",
          "type": "address"
        },
        {
          "indexed": false,
          "internalType": "uint256",
          "name": "_skillWalletTokenId",
          "type": "uint256"
        },
        {
          "indexed": false,
          "internalType": "uint256",
          "name": "_transferredTokens",
          "type": "uint256"
        }
      ],
      "name": "MemberAdded",
      "type": "event"
    },
    {
      "anonymous": false,
      "inputs": [
        {
          "indexed": true,
          "internalType": "address",
          "name": "_member",
          "type": "address"
        }
      ],
      "name": "MemberLeft",
      "type": "event"
    },
    {
      "inputs": [],
      "name": "activeMembersCount",
      "outputs": [
        {
          "internalType": "uint16",
          "name": "",
          "type": "uint16"
        }
      ],
      "stateMutability": "view",
      "type": "function"
    },
    {
      "inputs": [],
      "name": "communityTokenId",
      "outputs": [
        {
          "internalType": "uint256",
          "name": "",
          "type": "uint256"
        }
      ],
      "stateMutability": "view",
      "type": "function"
    },
    {
      "inputs": [
        {
          "internalType": "uint256",
          "name": "",
          "type": "uint256"
        }
      ],
      "name": "isMember",
      "outputs": [
        {
          "internalType": "bool",
          "name": "",
          "type": "bool"
        }
      ],
      "stateMutability": "view",
      "type": "function"
    },
    {
      "inputs": [
        {
          "internalType": "uint256",
          "name": "skillWalletTokenId",
          "type": "uint256"
        },
        {
          "internalType": "uint256",
          "name": "credits",
          "type": "uint256"
        }
      ],
      "name": "join",
      "outputs": [],
      "stateMutability": "nonpayable",
      "type": "function"
    },
    {
      "inputs": [
        {
          "internalType": "address",
          "name": "newMemberAddress",
          "type": "address"
        },
        {
          "internalType": "uint64",
          "name": "displayStringId1",
          "type": "uint64"
        },
        {
          "internalType": "uint8",
          "name": "level1",
          "type": "uint8"
        },
        {
          "internalType": "uint64",
          "name": "displayStringId2",
          "type": "uint64"
        },
        {
          "internalType": "uint8",
          "name": "level2",
          "type": "uint8"
        },
        {
          "internalType": "uint64",
          "name": "displayStringId3",
          "type": "uint64"
        },
        {
          "internalType": "uint8",
          "name": "level3",
          "type": "uint8"
        },
        {
          "internalType": "string",
          "name": "uri",
          "type": "string"
        },
        {
          "internalType": "uint256",
          "name": "credits",
          "type": "uint256"
        }
      ],
      "name": "joinNewMember",
      "outputs": [],
      "stateMutability": "nonpayable",
      "type": "function"
    },
    {
      "inputs": [
        {
          "internalType": "address",
          "name": "memberAddress",
          "type": "address"
        }
      ],
      "name": "leave",
      "outputs": [],
      "stateMutability": "nonpayable",
      "type": "function"
    },
    {
      "inputs": [],
      "name": "metadataUri",
      "outputs": [
        {
          "internalType": "string",
          "name": "",
          "type": "string"
        }
      ],
      "stateMutability": "view",
      "type": "function"
    },
    {
      "inputs": [],
      "name": "ownerId",
      "outputs": [
        {
          "internalType": "uint256",
          "name": "",
          "type": "uint256"
        }
      ],
      "stateMutability": "view",
      "type": "function"
    },
    {
      "inputs": [],
      "name": "scarcityScore",
      "outputs": [
        {
          "internalType": "uint256",
          "name": "",
          "type": "uint256"
        }
      ],
      "stateMutability": "view",
      "type": "function"
    },
    {
      "inputs": [
        {
          "internalType": "uint256",
          "name": "",
          "type": "uint256"
        }
      ],
      "name": "skillWalletIds",
      "outputs": [
        {
          "internalType": "uint256",
          "name": "",
          "type": "uint256"
        }
      ],
      "stateMutability": "view",
      "type": "function"
    }
  ],
  "bytecode": "0x60806040523480156200001157600080fd5b506040516200216d3803806200216d833981016040819052620000349162000190565b600880546001600160a01b0319166001600160a01b0383161790556040516200005d90620000b9565b604051809103906000f0801580156200007a573d6000803e3d6000fd5b50600780546001600160a01b0319166001600160a01b03929092169190911790558151620000b0906000906020850190620000c7565b50505062000264565b6113828062000deb83390190565b828054600181600116156101000203166002900490600052602060002090601f016020900481019282620000ff57600085556200014a565b82601f106200011a57805160ff19168380011785556200014a565b828001600101855582156200014a579182015b828111156200014a5782518255916020019190600101906200012d565b50620001589291506200015c565b5090565b5b808211156200015857600081556001016200015d565b80516001600160a01b03811681146200018b57600080fd5b919050565b60008060408385031215620001a3578182fd5b82516001600160401b0380821115620001ba578384fd5b818501915085601f830112620001ce578384fd5b815181811115620001db57fe5b6040516020601f8301601f1916820181018481118382101715620001fb57fe5b604052828252848301810189101562000212578687fd5b8693505b8284101562000235578484018101518285018201529283019262000216565b828411156200024657868184840101525b8196506200025681890162000173565b955050505050509250929050565b610b7780620002746000396000f3fe608060405234801561001057600080fd5b506004361061009e5760003560e01c806379e66b461161006657806379e66b46146100fb5780637c8da89d1461010e5780638f85311514610123578063bedf77a614610136578063d50c7377146101495761009e565b8063019c08f5146100a357806306135265146100c1578063135b4165146100d6578063659a7748146100de57806377a4d559146100e6575b600080fd5b6100ab610169565b6040516100b89190610b12565b60405180910390f35b6100d46100cf36600461080d565b61016f565b005b6100ab610435565b6100ab61043b565b6100ee610441565b6040516100b89190610a35565b6100d461010936600461094c565b6104cf565b6101166106e0565b6040516100b89190610b03565b6100ab61013136600461091c565b6106ea565b6100d46101443660046107ce565b61070b565b61015c61015736600461091c565b610742565b6040516100b89190610a2a565b60025481565b600354601861ffff90911611156101a15760405162461bcd60e51b815260040161019890610a88565b60405180910390fd5b6101a9610757565b506040805160a08101825267ffffffffffffffff808c166060830190815260ff808d166080850152908352835180850185528b831681528a82166020828101919091528085019190915284518086018652928a16835290881690820152818301526008549151630a73b69d60e01b815290916001600160a01b031690630a73b69d9061023f908e9085908990899060040161099d565b600060405180830381600087803b15801561025957600080fd5b505af115801561026d573d6000803e3d6000fd5b50506008546040516342ca962960e01b8152600093506001600160a01b0390911691506342ca9629906102a4908f90600401610989565b60206040518083038186803b1580156102bc57600080fd5b505afa1580156102d0573d6000803e3d6000fd5b505050506040513d601f19601f820116820180604052508101906102f49190610934565b6000818152600560205260408082208054600160ff19909116811790915560068054808301825593527ff652222313e28459528d920b65115c16c04f3efc82aaedc97be59f3f377c0d3f9092018390556003805461ffff19811661ffff9182169094011692909217909155600754905163a9059cbb60e01b81529192506001600160a01b03169063a9059cbb90610391908f908790600401610a11565b602060405180830381600087803b1580156103ab57600080fd5b505af11580156103bf573d6000803e3d6000fd5b505050506040513d601f19601f820116820180604052508101906103e391906108fc565b508b6001600160a01b03167fe17e0e2cd88e2144dd54f3d823c30d4569092bcac1aabaec1129883e9cc12d2e828560405161041f929190610b1b565b60405180910390a2505050505050505050505050565b60045481565b60015481565b6000805460408051602060026001851615610100026000190190941693909304601f810184900484028201840190925281815292918301828280156104c75780601f1061049c576101008083540402835291602001916104c7565b820191906000526020600020905b8154815290600101906020018083116104aa57829003601f168201915b505050505081565b600354601861ffff90911611156104f85760405162461bcd60e51b815260040161019890610a88565b60008281526005602052604090205460ff16156105275760405162461bcd60e51b815260040161019890610acc565b6008546040516331a9108f60e11b81526000916001600160a01b031690636352211e90610558908690600401610b12565b60206040518083038186803b15801561057057600080fd5b505afa158015610584573d6000803e3d6000fd5b505050506040513d601f19601f820116820180604052508101906105a891906107f1565b6000848152600560205260408082208054600160ff19909116811790915560068054808301825593527ff652222313e28459528d920b65115c16c04f3efc82aaedc97be59f3f377c0d3f9092018690556003805461ffff19811661ffff9182169094011692909217909155600754905163a9059cbb60e01b81529192506001600160a01b03169063a9059cbb906106459084908690600401610a11565b602060405180830381600087803b15801561065f57600080fd5b505af1158015610673573d6000803e3d6000fd5b505050506040513d601f19601f8201168201806040525081019061069791906108fc565b50806001600160a01b03167fe17e0e2cd88e2144dd54f3d823c30d4569092bcac1aabaec1129883e9cc12d2e84846040516106d3929190610b1b565b60405180910390a2505050565b60035461ffff1681565b600681815481106106fa57600080fd5b600091825260209091200154905081565b6040516001600160a01b038216907fbea911b50ccdd2233b28faa49766c3cbd0631608f32e5a724d7b83b32b681ad090600090a250565b60056020526000908152604090205460ff1681565b604051806060016040528061076a610789565b8152602001610777610789565b8152602001610784610789565b905290565b604080518082019091526000808252602082015290565b803567ffffffffffffffff811681146107b857600080fd5b919050565b803560ff811681146107b857600080fd5b6000602082840312156107df578081fd5b81356107ea81610b29565b9392505050565b600060208284031215610802578081fd5b81516107ea81610b29565b6000806000806000806000806000806101208b8d03121561082c578586fd5b8a3561083781610b29565b995061084560208c016107a0565b985061085360408c016107bd565b975061086160608c016107a0565b965061086f60808c016107bd565b955061087d60a08c016107a0565b945061088b60c08c016107bd565b935060e08b013567ffffffffffffffff808211156108a7578485fd5b818d0191508d601f8301126108ba578485fd5b8135818111156108c8578586fd5b8e60208285010111156108d9578586fd5b6020830195508094505050506101008b013590509295989b9194979a5092959850565b60006020828403121561090d578081fd5b815180151581146107ea578182fd5b60006020828403121561092d578081fd5b5035919050565b600060208284031215610945578081fd5b5051919050565b6000806040838503121561095e578182fd5b50508035926020909101359150565b805167ffffffffffffffff16825260209081015160ff16910152565b6001600160a01b0391909116815260200190565b600061010060018060a01b03871683526109bb60208401875161096d565b60208601516109cd606085018261096d565b5060408601516109e060a085018261096d565b508060e0840152838184015250610120838582850137828401810191909152601f909201601f191601019392505050565b6001600160a01b03929092168252602082015260400190565b901515815260200190565b6000602080835283518082850152825b81811015610a6157858101830151858201604001528201610a45565b81811115610a725783604083870101525b50601f01601f1916929092016040019392505050565b60208082526024908201527f54686572652061726520616c7265616479203234206d656d626572732c20736f6040820152637272792160e01b606082015260800190565b60208082526018908201527f596f75206861766520616c7265616479206a6f696e6564210000000000000000604082015260600190565b61ffff91909116815260200190565b90815260200190565b918252602082015260400190565b6001600160a01b0381168114610b3e57600080fd5b5056fea2646970667358221220af6451ba86ef34be46a8b09835db185d7686c819ece682a0b6eedc4f940e716a64736f6c6343000704003360806040523480156200001157600080fd5b50604051806040016040528060048152602001634469546f60e01b815250604051806040016040528060048152602001634449544f60e01b81525081600390805190602001906200006492919062000295565b5080516200007a90600490602084019062000295565b50506005805460ff19166012179055506000620000966200011b565b60058054610100600160a81b0319166101006001600160a01b03841690810291909117909155604051919250906000907f8be0079c531659141344cd1fd0a4f28419497f9722a3daafe3b4186f6b6457e0908290a350336000818152600660205260409020805460ff191660011790556200011590620ea6126200011f565b62000341565b3390565b6001600160a01b0382166200017b576040805162461bcd60e51b815260206004820152601f60248201527f45524332303a206d696e7420746f20746865207a65726f206164647265737300604482015290519081900360640190fd5b62000189600083836200022e565b620001a5816002546200023360201b62000a051790919060201c565b6002556001600160a01b03821660009081526020818152604090912054620001d891839062000a0562000233821b17901c565b6001600160a01b0383166000818152602081815260408083209490945583518581529351929391927fddf252ad1be2c89b69c2b068fc378daa952ba7f163c4a11628f55a4df523b3ef9281900390910190a35050565b505050565b6000828201838110156200028e576040805162461bcd60e51b815260206004820152601b60248201527f536166654d6174683a206164646974696f6e206f766572666c6f770000000000604482015290519081900360640190fd5b9392505050565b828054600181600116156101000203166002900490600052602060002090601f016020900481019282620002cd576000855562000318565b82601f10620002e857805160ff191683800117855562000318565b8280016001018555821562000318579182015b8281111562000318578251825591602001919060010190620002fb565b50620003269291506200032a565b5090565b5b808211156200032657600081556001016200032b565b61103180620003516000396000f3fe608060405234801561001057600080fd5b506004361061010b5760003560e01c80638ab1d681116100a2578063a457c2d711610071578063a457c2d71461030f578063a9059cbb1461033b578063dd62ed3e14610367578063e43252d714610395578063f2fde38b146103bb5761010b565b80638ab1d681146102975780638da5cb5b146102bd57806395d89b41146102e15780639b19251a146102e95761010b565b8063313ce567116100de578063313ce5671461021d578063395093511461023b57806370a0823114610267578063715018a61461028d5761010b565b806306fdde0314610110578063095ea7b31461018d57806318160ddd146101cd57806323b872dd146101e7575b600080fd5b6101186103e1565b6040805160208082528351818301528351919283929083019185019080838360005b8381101561015257818101518382015260200161013a565b50505050905090810190601f16801561017f5780820380516001836020036101000a031916815260200191505b509250505060405180910390f35b6101b9600480360360408110156101a357600080fd5b506001600160a01b038135169060200135610477565b604080519115158252519081900360200190f35b6101d56104c6565b60408051918252519081900360200190f35b6101b9600480360360608110156101fd57600080fd5b506001600160a01b038135811691602081013590911690604001356104cc565b61022561051d565b6040805160ff9092168252519081900360200190f35b6101b96004803603604081101561025157600080fd5b506001600160a01b038135169060200135610526565b6101d56004803603602081101561027d57600080fd5b50356001600160a01b031661056e565b610295610589565b005b610295600480360360208110156102ad57600080fd5b50356001600160a01b031661063b565b6102c56106f5565b604080516001600160a01b039092168252519081900360200190f35b610118610709565b6101b9600480360360208110156102ff57600080fd5b50356001600160a01b031661076a565b6101b96004803603604081101561032557600080fd5b506001600160a01b03813516906020013561077f565b6101b96004803603604081101561035157600080fd5b506001600160a01b0381351690602001356107c7565b6101d56004803603604081101561037d57600080fd5b506001600160a01b038135811691602001351661080f565b610295600480360360208110156103ab57600080fd5b50356001600160a01b031661083a565b610295600480360360208110156103d157600080fd5b50356001600160a01b03166108f7565b60038054604080516020601f600260001961010060018816150201909516949094049384018190048102820181019092528281526060939092909183018282801561046d5780601f106104425761010080835404028352916020019161046d565b820191906000526020600020905b81548152906001019060200180831161045057829003601f168201915b5050505050905090565b3360009081526006602052604081205460ff166104b5576040805162461bcd60e51b8152602060048201526000602482015290519081900360640190fd5b6104bf8383610a5f565b9392505050565b60025490565b3360009081526006602052604081205460ff1661050a576040805162461bcd60e51b8152602060048201526000602482015290519081900360640190fd5b610515848484610a7c565b949350505050565b60055460ff1690565b3360009081526006602052604081205460ff16610564576040805162461bcd60e51b8152602060048201526000602482015290519081900360640190fd5b6104bf8383610b03565b6001600160a01b031660009081526020819052604090205490565b610591610b51565b6001600160a01b03166105a26106f5565b6001600160a01b0316146105eb576040805162461bcd60e51b81526020600482018190526024820152600080516020610f6e833981519152604482015290519081900360640190fd5b60055460405160009161010090046001600160a01b0316907f8be0079c531659141344cd1fd0a4f28419497f9722a3daafe3b4186f6b6457e0908390a360058054610100600160a81b0319169055565b610643610b51565b6001600160a01b03166106546106f5565b6001600160a01b03161461069d576040805162461bcd60e51b81526020600482018190526024820152600080516020610f6e833981519152604482015290519081900360640190fd5b6001600160a01b038116600081815260066020908152604091829020805460ff19169055815192835290517fcdd2e9b91a56913d370075169cefa1602ba36be5301664f752192bb1709df7579281900390910190a150565b60055461010090046001600160a01b031690565b60048054604080516020601f600260001961010060018816150201909516949094049384018190048102820181019092528281526060939092909183018282801561046d5780601f106104425761010080835404028352916020019161046d565b60066020526000908152604090205460ff1681565b3360009081526006602052604081205460ff166107bd576040805162461bcd60e51b8152602060048201526000602482015290519081900360640190fd5b6104bf8383610b55565b3360009081526006602052604081205460ff16610805576040805162461bcd60e51b8152602060048201526000602482015290519081900360640190fd5b6104bf8383610bbd565b6001600160a01b03918216600090815260016020908152604080832093909416825291909152205490565b610842610b51565b6001600160a01b03166108536106f5565b6001600160a01b03161461089c576040805162461bcd60e51b81526020600482018190526024820152600080516020610f6e833981519152604482015290519081900360640190fd5b6001600160a01b038116600081815260066020908152604091829020805460ff19166001179055815192835290517fa850ae9193f515cbae8d35e8925bd2be26627fc91bce650b8652ed254e9cab039281900390910190a150565b6108ff610b51565b6001600160a01b03166109106106f5565b6001600160a01b031614610959576040805162461bcd60e51b81526020600482018190526024820152600080516020610f6e833981519152604482015290519081900360640190fd5b6001600160a01b03811661099e5760405162461bcd60e51b8152600401808060200182810382526026815260200180610ed86026913960400191505060405180910390fd5b6005546040516001600160a01b0380841692610100900416907f8be0079c531659141344cd1fd0a4f28419497f9722a3daafe3b4186f6b6457e090600090a3600580546001600160a01b0390921661010002610100600160a81b0319909216919091179055565b6000828201838110156104bf576040805162461bcd60e51b815260206004820152601b60248201527f536166654d6174683a206164646974696f6e206f766572666c6f770000000000604482015290519081900360640190fd5b6000610a73610a6c610b51565b8484610bd1565b50600192915050565b6000610a89848484610cbd565b610af984610a95610b51565b610af485604051806060016040528060288152602001610f46602891396001600160a01b038a16600090815260016020526040812090610ad3610b51565b6001600160a01b031681526020810191909152604001600020549190610e18565b610bd1565b5060019392505050565b6000610a73610b10610b51565b84610af48560016000610b21610b51565b6001600160a01b03908116825260208083019390935260409182016000908120918c168152925290205490610a05565b3390565b6000610a73610b62610b51565b84610af485604051806060016040528060258152602001610fd76025913960016000610b8c610b51565b6001600160a01b03908116825260208083019390935260409182016000908120918d16815292529020549190610e18565b6000610a73610bca610b51565b8484610cbd565b6001600160a01b038316610c165760405162461bcd60e51b8152600401808060200182810382526024815260200180610fb36024913960400191505060405180910390fd5b6001600160a01b038216610c5b5760405162461bcd60e51b8152600401808060200182810382526022815260200180610efe6022913960400191505060405180910390fd5b6001600160a01b03808416600081815260016020908152604080832094871680845294825291829020859055815185815291517f8c5be1e5ebec7d5bd14f71427d1e84f3dd0314c0f7b2291e5b200ac8c7c3b9259281900390910190a3505050565b6001600160a01b038316610d025760405162461bcd60e51b8152600401808060200182810382526025815260200180610f8e6025913960400191505060405180910390fd5b6001600160a01b038216610d475760405162461bcd60e51b8152600401808060200182810382526023815260200180610eb56023913960400191505060405180910390fd5b610d52838383610eaf565b610d8f81604051806060016040528060268152602001610f20602691396001600160a01b0386166000908152602081905260409020549190610e18565b6001600160a01b038085166000908152602081905260408082209390935590841681522054610dbe9082610a05565b6001600160a01b038084166000818152602081815260409182902094909455805185815290519193928716927fddf252ad1be2c89b69c2b068fc378daa952ba7f163c4a11628f55a4df523b3ef92918290030190a3505050565b60008184841115610ea75760405162461bcd60e51b81526004018080602001828103825283818151815260200191508051906020019080838360005b83811015610e6c578181015183820152602001610e54565b50505050905090810190601f168015610e995780820380516001836020036101000a031916815260200191505b509250505060405180910390fd5b505050900390565b50505056fe45524332303a207472616e7366657220746f20746865207a65726f20616464726573734f776e61626c653a206e6577206f776e657220697320746865207a65726f206164647265737345524332303a20617070726f766520746f20746865207a65726f206164647265737345524332303a207472616e7366657220616d6f756e7420657863656564732062616c616e636545524332303a207472616e7366657220616d6f756e74206578636565647320616c6c6f77616e63654f776e61626c653a2063616c6c6572206973206e6f7420746865206f776e657245524332303a207472616e736665722066726f6d20746865207a65726f206164647265737345524332303a20617070726f76652066726f6d20746865207a65726f206164647265737345524332303a2064656372656173656420616c6c6f77616e63652062656c6f77207a65726fa2646970667358221220d889cf30d29041386f0f8ac96dd55bd5169cfe302f92b0a20eb019815d936a9464736f6c63430007040033",
  "linkReferences": {},
  "deployedLinkReferences": {}
}